S00E00004578616D33612E73726563F7
S1130000FDC0000009C1000007C1000005C10000D7
S113001003C1000001C10000FFC00000FDC00000DA
S1130020FBC00000F9C00000F7C00000F5C00000EC
S1130030F3C00000F1C00000EFC00000EDC00000FC
S1130040EBC00000E9C00000E7C00000E5C000000C
S1130050E3C00000E1C00000DFC00000DDC000001C
S1130060DBC00000D9C00000D7C00000D5C000002C
S1130070D3C00000D1C00000CFC00000CDC000003C
S1130080CBC00000C9C00000C7C00000C5C000004C
S1130090C3C00000C1C00000BFC00000BDC000005C
S11300A0BBC00000B9C00000B7C00000B5C000006C
S11300B0B3C00000B1C00000AFC00000ADC000007C
S11300C0ABC00000A9C00000A7C00000A5C000008C
S11300D0A3C00000A1C000009FC000009DC000009C
S11300E09BC0000099C0000097C0000095C00000AC
S11300F093C0000091C000008FC000008DC00000BC
S11301008BC0000089C0000087C0000085C00000CB
S113011083C0000081C000007FC000007DC00000DB
S11301207BC0000079C0000077C0000075C00000EB
S113013073C0000071C000006FC000006DC00000FB
S11301406BC0000069C0000067C0000065C000000B
S113015063C0000061C000005FC000005DC000001B
S11301605BC0000059C0000057C0000055C000002B
S113017053C0000051C000004FC000004DC000003B
S11301804BC0000049C0000047C0000045C000004B
S113019043C0000041C000003FC000003DC000005B
S11301A03BC0000039C0000037C0000035C000006B
S11301B033C0000031C000002FC000002DC000007B
S11301C02BC0000029C00000A5C1000025C000000C
S11301D023C0000021C000001FC000001DC000009B
S11301E01BC0000019C0000017C0000015C00000AB
S11301F013C0000011C000000FC0000011241FBE76
S1130200CFEFCDBFDFE3DEBF00E00CBF18BE19BEE9
S11302101ABE1BBE78D145C3F3CE80E090E1A7E4BB
S1130220B0E00BB6ABBFFC0120810BBE2223CCF3A4
S11302300895CF93C82FF1DF41E050E167E470E007
S11302400BB66BBFFA01C0830BBECF910895E5DFF7
S113025028E380E090E1A7E4B0E00BB6ABBFFC017B
S113026020830BBEDADF2FE080E090E1A7E4B0E06A
S11302700BB6ABBFFC0120830BBECFDF21E080E0D7
S113028090E1A7E4B0E00BB6ABBFFC0120830BBE4A
S1130290C4DF26E080E090E1A7E4B0E00BB6ABBF9A
S11302A0FC0120830BBE0895B8DF2FE080E090E1CD
S11302B0A7E4B0E00BB6ABBFFC0120830BBEADDFFF
S11302C021E080E090E1A7E4B0E00BB6ABBFFC0115
S11302D020830BBE0895E0EEF6E087E3808383E39A
S11302E084838FEF80932007E0E4F4E081E080834F
S11302F0138A80E8828B85E1808B80E097E4868B8B
S1130300978B81E2848B08958FEF8093A00680936E
S1130310A40621E02093000B81E18093010B10924D
S1130320020B30EA3093030B1092040B86E79FE331
S11303308093280B9093290B1092200B1092210B81
S11303401092080B1092400B80E18093410B1092A5
S1130350420B3093430B1092440B2093460BE2EA7A
S1130360F0E08081816080838EE392E08093660B6D
S11303709093670B1092600B1092610B1092480BD4
S1130380089581E0809340028CE18093410285E0EE
S11303908093430280E38093420287E08093440287
S11303A080E28093610281E88093600208958093E3
S11303B0280B9093290B4093660B5093670B109274
S11303C0200B1092210B1092600B1092610B209362
S11303D0400B6093000BA0E6BBE0E6E6FBE02D914A
S11303E03C9111978081918128173907C1F70895AD
S11303F023E333E343E750E40AD188234CF424E0B5
S113040030E044E254EF61E088EC93E0D0CF08950B
S113041024E030E044E254EF61E08FE192E0C7CFA2
S113042008958F929F92AF92BF92CF92DF92EF92F4
S1130430FF92CF93DF931F921F92CDB7DEB788E868
S113044093E101970097E9F7809164029091650226
S1130450992789839A8369817A8180E090E00CD11D
S113046020E030E040E05CE3B9D120E030E040EA55
S113047050E4B4D16B017C01BBDF16DFC701B601C8
S1130480CAD04B015C0180E3880DD3DE8EE2D1DE5D
S1130490B401882777FD8095982FF0D09B01AC019B
S11304A0C701B6014FD020E030E040E251E496D1DC
S11304B04B015C01B0D06B017C0180E38C0DB9DE93
S11304C0B601882777FD8095982FD8D09B01AC0181
S11304D0C501B40137D020E030E040E251E47ED1E0
S11304E09AD080E3860FA5DE86E5A3DE0F900F90F9
S11304F0DF91CF91FF90EF90DF90CF90BF90AF90BE
S11305009F908F900895E7DEA2DE3BDFFDDE7894B6
S113051088DFFECF1F920F920FB60F92112408B6F8
S11305200F9218BE8F931092400B1092000B81E033
S113053080934C0B8F910F9008BE0F900FBE0F90BD
S11305401F9018955058BB27AA270ED00DC1FED076
S113055030F003D120F031F49F3F11F41EF4F3C0C6
S11305600EF4E095E7FBE9C0E92F0FD180F3BA1749
S1130570620773078407950718F071F49EF527C185
S11305800EF4E0950B2EBA2FA02D0B01B9019001AA
S11305900C01CA01A0011124FF27591B99F0593FEE
S11305A050F4503E68F11A16F040A22F232F342F36
S11305B04427585FF3CF469537952795A795F04084
S11305C05395C9F77EF41F16BA0B620B730B840B99
S11305D0BAF09150A1F0FF0FBB1F661F771F881F51
S11305E0C2F70EC0BA0F621F731F841F48F48795A9
S11305F077956795B795F7959E3F08F0B3CF939598
S1130600880F08F09927EE0F97958795089571D074
S113061008F481E0089504D06894B111D9C0089514
S1130620BCD088F09F5790F0B92F9927B751A0F00C
S1130630D1F0660F771F881F991F1AF0BA95C9F772
S113064012C0B13081F0C3D0B1E00895C0C0672FAB
S1130650782F8827B85F39F0B93FCCF38695779522
S11306606795B395D9F73EF490958095709561950B
S11306707F4F8F4F9F4F0895E89409C097FB3EF436
S113068090958095709561957F4F8F4F9F4F9923DB
S1130690A9F0F92F96E9BB279395F6958795779559
S11306A06795B795F111F8CFFAF4BB0F11F460FF19
S11306B01BC06F5F7F4F8F4F9F4F16C0882311F071
S11306C096E911C0772321F09EE8872F762F05C085
S11306D0662371F096E8862F70E060E02AF09A9520
S11306E0660F771F881FDAF7880F9695879597F915
S11306F00895990F0008550FAA0BE0E8FEEF1616AF
S11307001706E807F907C0F012161306E407F50701
S113071098F0621B730B840B950B39F40A2661F075
S1130720232B242B252B21F408950A2609F4A14018
S1130730A6958FEF811D811D089597F99F6780E825
S113074070E060E008959FEF80EC089500240A941F
S11307501616170618060906089500240A94121698
S11307601306140605060895092E0394000C11F4CB
S1130770882352F0BB0F40F4BF2B11F460FF04C078
S11307806F5F7F4F8F4F9F4F089557FD9058440FD1
S1130790551F59F05F3F71F04795880F97FB991FDC
S11307A061F09F3F79F08795089512161306140699
S11307B0551FF2CF4695F1DF08C016161706180626
S11307C0991FF1CF86957105610508940895E89401
S11307D0BB2766277727CB0197F908950BD0C4CFA1
S11307E0B5DF28F0BADF18F0952309F0A6CFABCF18
S11307F01124EECFCADFA0F3959FD1F3950F50E0FB
S1130800551F629FF001729FBB27F00DB11D639FBE
S1130810AA27F00DB11DAA1F649F6627B00DA11D64
S1130820661F829F2227B00DA11D621F739FB00D0A
S1130830A11D621F839FA00D611D221F749F33277A
S1130840A00D611D231F849F600D211D822F762F13
S11308506A2F11249F5750408AF0E1F088234AF010
S1130860EE0FFF1FBB1F661F771F881F915050405C
S1130870A9F79E3F510570F060CFAACF5F3FECF31C
S1130880983EDCF3869577956795B795F795E79548
S11308909F5FC1F7FE2B880F911D9695879597F959
S10908A00895F894FFCF57
S9030000FC
