S00F00006E65774C6162382E7372656384
S1130000FDC0000020C100001EC100001CC1000092
S11300101AC1000018C1000016C1000014C100007C
S113002012C1000010C100000EC100000CC100008C
S11300300AC1000008C1000067C7000004C1000035
S113004002C1000000C10000FEC00000FCC00000AE
S1130050E1C70000F8C00000F6C00000F4C00000D2
S1130060F2C00000F0C00000EEC00000ECC00000D0
S1130070EAC00000E8C00000E6C00000E4C00000E0
S1130080E2C00000E0C00000DEC00000DCC00000F0
S1130090DAC00000D8C00000D6C00000D4C0000000
S11300A0D2C00000D0C00000CEC00000CCC0000010
S11300B0CAC00000C8C00000C6C00000C4C0000020
S11300C0C2C00000C0C00000BEC00000BCC0000030
S11300D0BAC00000B8C00000B6C00000B4C0000040
S11300E0B2C00000B0C00000AEC00000ACC0000050
S11300F0AAC00000A8C00000A6C00000A4C0000060
S1130100A2C00000A0C000009EC000009CC000006F
S11301109AC0000098C0000096C0000094C000007F
S113012092C0000090C000008EC000008CC000008F
S11301308AC0000088C0000086C0000084C000009F
S113014082C0000080C000007EC000007CC00000AF
S11301507AC0000078C0000076C0000074C00000BF
S113016072C0000070C000006EC000006CC00000CF
S11301706AC0000068C0000066C0000064C00000DF
S113018062C0000060C000005EC000005CC00000EF
S11301905AC0000058C0000056C0000054C00000FF
S11301A052C0000050C000004EC000004CC000000F
S11301B04AC0000048C00000D2C6000044C000008D
S11301C042C0000040C000003EC000003CC000002F
S11301D03AC0000038C0000036C0000034C000003F
S11301E032C0000030C000002EC000002CC000004F
S11301F02AC0000028C0000026C0000011241FBE31
S1130200CFEFCDBFDFE3DEBF00E00CBF18BE19BEE9
S11302101ABE1BBE12E2A0E0B0E2EAE8F2E100E09E
S11302200BBF02C007900D92A231B107D9F71BBED4
S113023022E3A2E1B2E201C01D92A839B207E1F7BC
S1130240D4D50C944309DCCE80E090E1A7E4B0E07F
S11302500BB6ABBFFC0120810BBE2223CCF3089567
S1130260E0EEF6E087E3808383E384838FEF80937B
S11302702007E0E4F4E081E08083138A80E8828B45
S113028085E1808B80E097E4868B978B81E2848B79
S11302900895CF93DF931F92CDB7DEB78FE080939D
S11302A0800688E189838981809397068981809378
S11302B096068981809395068981809394060F9090
S11302C0DF91CF910895CF93DF9380EF8093A006C1
S11302D0E2EAF6E08FE080838FEF8093A4068093B8
S11302E04006809344061092400B81E18093410BB9
S11302F01092420B20EA2093430B1092440B8EE39E
S113030092E08093680B9093690BC0E6DBE018825F
S11303101982A8E4BBE01C921092400830E13093AB
S1130320410810924208209343081092440821E0A7
S11303302093460880936608909367081882198270
S11303401C92109200083093010810920208109237
S1130350030810920408209306088FE097E2809324
S113036026089093270810922008109221081092D2
S1130370080820831092B00688E78093800188E201
S11303808093030B3093010B2093000B2093070BF6
S11303902093A2001092200B1092210B1092280B94
S11303A01092290BDF91CF9108954EDF28E380E06E
S11303B090E1A7E4B0E00BB6ABBFFC0120830BBE19
S11303C043DF2FE080E090E1A7E4B0E00BB6ABBFE1
S11303D0FC0120830BBE38DF21E080E090E1A7E43C
S11303E0B0E00BB6ABBFFC0120830BBE2DDF26E0D3
S11303F080E090E1A7E4B0E00BB6ABBFFC01208342
S11304000BBE0895CF93DF93CDB7DEB76797CDBF0B
S1130410DEBF80E1E0E0F0E2DE01119601900D9292
S11304208A95E1F787E090E0A0E0B0E09BE0ADE0E2
S1130430BEE0898B9A8BAB8BBC8B1D8A8D898430F3
S113044009F44DC0A0E8B6E08D89E1E1F0E0EC0FDD
S1130450FD1FE80FF11D808114968C931497189654
S11304608C91189782958F708F8B1E8A8E89843019
S113047071F18E89E1E1F0E0EC0FFD1FE80FF11D51
S113048090818F8998131DC00BC08E89E1E1F0E043
S1130490EC0FFD1FE80FF11D90818F89981311C097
S11304A08D89EE89F0E094E0899FE00DF11D11241F
S11304B081E090E08C0F9D1FE80FF91F808190E090
S11304C013C08E898F5F8E8B8E898430F1F68D896F
S11304D08F5F8D8B8D89843009F0B6CF03C08FEF89
S11304E09FEF02C08FEF9FEF6796CDBFDEBFDF9116
S11304F0CF9108958F929F92AF92BF92CF92DF9245
S1130500EF92FF921F93CF93DF93EC010F2ECC2435
S1130510C394F0E1DF2EF7E4EF2EF12CF02D0F2E33
S1130520812CF0E19F2EF7E4AF2EB12CF02D10ECCE
S11305300FC08ADE89918A3031F40BB6ABBEF40168
S113054010830BBE05C00BB6EBBEF60180830BBE59
S113055088818111EECFDF91CF911F91FF90EF90B1
S1130560DF90CF90BF90AF909F908F9008956CDEF6
S11305702FE080E090E1A7E4B0E00BB6ABBFFC0154
S113058020830BBE61DE21E080E090E1A7E4B0E0CF
S11305900BB6ABBFFC0120830BBE08958093680BA0
S11305A09093690B4093660850936708E0E6FBE07C
S11305B010821182108211826093400B20934008B4
S11305C0E0E4F8E080818111FDCF08953F924F92DD
S11305D05F926F927F928F929F92AF92BF92CF92CF
S11305E0DF92EF92FF920F931F93CF93DF93CDB7D8
S11305F0DEB7CA54D109CDBFDEBF8C0180E2E0E191
S1130600F0E2DE01119601900D928A95E1F78CE1FA
S1130610E0E3F0E2DE01919601900D928A95E1F714
S11306208EE0ECE4F0E2DE01DD9601900D928A9515
S1130630E1F70E30110551F00F30110509F458C0DF
S11306400F3F8FEF180709F0F0C109C290DF8D8DBD
S11306509E8D50DF2A96FFAC2A9709AD1AAD25E08E
S113066030E042EF58E36F2DC80198DF25E030E019
S113067042EF58E321966FAD21978FA198A58EDFA5
S113068025E030E042EF58E323966FAD23978BA526
S11306909CA584DF25E030E042EF58E324966FAD5B
S11306A024978DA59EA57ADF25E030E042EF58E33C
S11306B026966FAD269789A99AA970DF25E030E0C8
S11306C042EF58E36DAD89A19AA168DF25E030E0DF
S11306D042EF58E329966FAD29978FA998AD5EDF55
S11306E025E030E042EF58E36F2DC80157DFB7C172
S11306F03EDF8AE590E2FEDE2196DFAC21970FA172
S113070018A524E030E044E254EF6D2DC80146DF23
S113071024E030E044E254EF6D2DC8013FDF24E0D3
S113072030E044E254EF6D2DC80138DF24E030E0BE
S113073044E254EF24966FAD24978DA59EA52EDF39
S11307402396CFAC2397EBA4FCA424E030E044E24E
S113075054EF6C2DC70122DF24E030E044E254EF73
S11307606D2DC8011BDFDEAC0BA11CA124E030E021
S113077044E254EF6D2DC80111DF25E030E042EF73
S113078058E36C2DC7010ADF25E030E042EF58E35F
S11307906D2DC80103DF03EA16E0BB24BA94F80107
S11307A0B082DEACEBA0FCA025E030E049E05DE3E4
S11307B06D2DC701F3DE25E030E049E05DE36D2DEA
S11307C0C701ECDE25E030E049E05DE36D2DC701B3
S11307D0E5DE25E030E049E05DE36D2DC701DEDEB6
S11307E0F801B08224E030E044E254EF24966FAD87
S11307F024978DA59EA5D2DE23969FAC2397CBA4E8
S1130800DCA424E030E044E254EF692DC601C6DEE6
S113081024E030E044E254EF21966FAD21978FA19C
S113082098A5BCDEAEACEBA0FCA024E030E044E232
S113083054EF6A2DC701B2DE25E030E049E05DE304
S1130840692DC601ABDE25E030E049E05DE36A2DA9
S1130850C701A4DE25E030E049E05DE36DAD89A188
S11308609AA19CDEF801B082DEACEBA0FCA025E0EE
S113087030E049E05DE36D2DC70190DE25E030E016
S113088049E05DE36D2DC70189DE25E030E049E0F4
S11308905DE36D2DC70182DE25E030E049E05DE3D4
S11308A06D2DC7017BDEF801B08224964FAC2497EE
S11308B0ADA4BEA424E030E044E254EF642DC501AD
S11308C06DDE2A967FAC2A9709AD1AAD25E030E09B
S11308D04FE957E1672DC80161DE24E030E044E2CE
S11308E054EF672DC8015ADE24E030E044E254EFAF
S11308F0672DC80153DE6DACE9A0FAA024E030E016
S113090044E254EF662DC70149DE24E030E044E2BE
S113091054EF672DC80142DE24E030E044E254EF96
S1130920672DC8013BDE2B963FAC2B978BAC9CAC60
S113093025E030E042EF58E3632DC4012FDE24E0CC
S113094030E044E254EF642DC50128DE24E030E0B9
S113095044E254EF662DC70121DE26965FAC26974C
S1130960C9A8DAA824E030E044E254EF652DC601BA
S113097015DE24E030E044E254EF642DC5010EDEC0
S113098024E030E044E254EF652DC60107DE24E0A4
S113099030E044E254EF652DC60100DE25E030E08E
S11309A042EF58E3662DC701F9DD24E030E044E26C
S11309B054EF672DC801F2DD24E030E044E254EF47
S11309C0662DC701EBDD24E030E044E254EF672DEF
S11309D0C801E4DD24E030E044E254EF662DC701B1
S11309E0DDDD24E030E044E254EF672DC801D6DDBC
S11309F024E030E044E254EF662DC701CFDD24E06B
S1130A0030E044E254EF672DC801C8DD24E030E053
S1130A1044E254EF662DC701C1DD25E030E042EF2A
S1130A2058E3632DC401BADD1AC0A1DD7801EE0CD0
S1130A30FF1C81E090E08C0F9D1FE80EF91EF7016A
S1130A408081918157DDFE01E00FF11F24E030E049
S1130A5044E254EF65ADF70180A191A19FDDC65B2F
S1130A60DF4FCDBFDEBFDF91CF911F910F91FF907C
S1130A70EF90DF90CF90BF90AF909F908F907F903A
S1130A806F905F904F903F900895CF92DF92EF92D6
S1130A90FF920F931F93CF93DF9380911222909133
S1130AA01322019779F563DD8FE991E223DDAADC56
S1130AB080931422909315220A9738F0A3DC809334
S1130AC01422909315220A97C8F72FE73AE186E09B
S1130AD0215030408040E1F700C0000048DD85EB44
S1130AE091E208DD10921622109217229FE7EAE1A4
S1130AF0F6E09150E040F040E1F700C00000E0E093
S1130B00F8E019C034DD8EEC91E2F4DC1092162288
S1130B10109217222FE73AE186E0215030408040BE
S1130B20E1F700C00000EBCF80818111FDCF10926E
S1130B30182210921922809118229091192201975B
S1130B4099F38091122290911322019709F040C0E9
S1130B50209114223091152280911622909117220F
S1130B60F901EE0FFF1FE65EFD4D80839183813016
S1130B70910541F140E951E0249F8001259F100D2A
S1130B80349F100D1124025D1D4DC0EDD1E3880F7B
S1130B90991FFC01E253FE4C6F01EE24EA94FE2CF3
S1130BA068817981882777FD8095982F55D2F8013F
S1130BB061937193819391938F01E992F992CC158A
S1130BC0DD0571F788EC90E080931622909317224C
S1130BD0DF91CF911F910F91FF90EF90DF90CF9015
S1130BE008952F923F924F925F926F927F929F92BD
S1130BF0AF92BF92CF92DF92EF92FF920F931F9327
S1130C00CF93DF9300D000D0CDB7DEB78FEF9FEF47
S1130C1089839A831B821C828B819C810A970CF0A6
S1130C20CDC0C0901622D0901722AA24A394B12C30
S1130C300F2EF4E69F2EF02DAD82BE828D819E8113
S1130C408C159D050CF0A9C0ED81FE81EB80FC8024
S1130C500D811E81EE0FFF1FE253FE4C60817181F6
S1130C60882777FD8095982FF7D11B012C019E9C36
S1130C70F0019F9CF00D11240E0F1F1FF801EE0FC1
S1130C80FF1FEE0FFF1FE65DFD4D20E030E040E466
S1130C905FE3608171818281938141D29B01AC01C8
S1130CA0C201B10138D2882394F567C0ED81FE8179
S1130CB0EB80FC800D811E81EE0FFF1FE253FE4C82
S1130CC060817181882777FD8095982FC5D12B018C
S1130CD03C019E9CF0019F9CF00D11240E0F1F1FE0
S1130CE0F801EE0FFF1FEE0FFF1FE65DFD4D20E044
S1130CF030E040E45FE360817181828193810FD2AF
S1130D009B01AC01C301B20106D28823B4F1ED8189
S1130D10FE81EB80FC800D811E81EE0FFF1FE253EC
S1130D20FE4C60817181882777FD8095982F94D13E
S1130D302B013C019E9CF0019F9CF00D11240E0F91
S1130D401F1FF801EE0FFF1FEE0FFF1FE65DFD4DA5
S1130D5020E030E040EA5FE3608171818281938129
S1130D60DED19B01AC01C301B20170D1181654F05D
S1130D708B819C8189839A8305C08FEF9FEF898340
S1130D809A830BC08D819E8101968D839E838D8174
S1130D909E818C159D050CF489CF89819A810196D9
S1130DA019F089819A810CC08B819C8101968B8377
S1130DB09C838B819C810A970CF43ECF89819A8114
S1130DC02696CDBFDEBFDF91CF911F910F91FF908B
S1130DD0EF90DF90CF90BF90AF909F907F906F90F7
S1130DE05F904F903F902F900895CF93DF931F9281
S1130DF01F92CDB7DEB71092CE311092CF310EE2F2
S1130E0012E20F2EFEECCF2EF1E3DF2EF02D0F2E8B
S1130E10F0EDEF2EF1E3FF2EF02D68E972E30F2ED3
S1130E20812C912CF0E8AF2EFFEBBF2EF02D4FEF6D
S1130E305FEF10C0D9018D929D92AD92BD929D013C
S1130E4041935193E617F707A9F700571E4F0C1566
S1130E501D0519F0F7019801EDCF02DAA6DA19DAC7
S1130E6032DA789401E010E00F2EF8ECCF2ED12C7A
S1130E70F02DEE24EA94FE2C85EE91E23BDBC2DAFF
S1130E8080931222909313228130910519F00297D6
S1130E90C1F0F2CF0093182210931922B3DA01970C
S1130EA0E9F3F3DD64DB85E092E224DBBFE322E4D3
S1130EB08FE0B15020408040E1F700C0000057DBD4
S1130EC0DBCFC0921622D0921722009318221093DF
S1130ED0192298DA0297E9F3D8DDE982FA8281DEF1
S1130EE089839A8389819A8171DB9FE3A2E4BFE0BD
S1130EF09150A040B040E1F700C0000038DB1092F0
S1130F00162210921722B8CF1F920F920FB60F928B
S1130F10112408B60F9218BE8F939F931092000865
S1130F201092200810922108809118229091192281
S1130F30019731F41092182210921922109200088D
S1130F4081E080930C0880E180930C0B9F918F913A
S1130F500F9008BE0F900FBE0F901F9018951F9210
S1130F600F920FB60F92112408B60F9218BE09B64D
S1130F700F9219BE0BB60F921BBE2F933F938F9304
S1130F809F93AF93BF93EF93FF931092000881E078
S1130F9080930C0880E180930C0B80911622909131
S1130FA0172285369105B4F4E0E2F8E0208131811E
S1130FB0DC01AA0FBB1FA253BE4C2D933C93019698
S1130FC080931622909317221082118281E08093DD
S1130FD000080DC01092182210921922E0E0F8E0E7
S1130FE01082109220081092210881E08083FF91E2
S1130FF0EF91BF91AF919F918F913F912F910F905E
S11310000BBE0F9009BE0F9008BE0F900FBE0F903D
S11310101F9018951F920F920FB60F92112408B6C5
S11310200F9218BE8F93109240081092400B81E0EB
S113103080934C0810926008109261088F910F9071
S113104008BE0F900FBE0F901F90189540D008F463
S113105081E00895E89409C097FB3EF4909580954B
S1131060709561957F4F8F4F9F4F9923A9F0F92F6A
S113107096E9BB279395F695879577956795B795E8
S1131080F111F8CFFAF4BB0F11F460FF1BC06F5FCE
S11310907F4F8F4F9F4F16C0882311F096E911C0E0
S11310A0772321F09EE8872F762F05C0662371F001
S11310B096E8862F70E060E02AF09A95660F771F15
S11310C0881FDAF7880F9695879597F90895990FF1
S11310D00008550FAA0BE0E8FEEF16161706E807FE
S11310E0F907C0F012161306E407F50798F0621B1F
S11310F0730B840B950B39F40A2661F0232B242BF4
S1131100252B21F408950A2609F4A140A6958FEF12
S1131110811D811D0895DBDF08F48FEF08950BD046
S113112078C069D028F06ED018F0952309F05AC021
S11311305FC01124A2C07ED0A0F3959FD1F3950F78
S113114050E0551F629FF001729FBB27F00DB11D47
S1131150639FAA27F00DB11DAA1F649F6627B00DD7
S1131160A11D661F829F2227B00DA11D621F739FC0
S1131170B00DA11D621F839FA00D611D221F749FCE
S11311803327A00D611D231F849F600D211D822F15
S1131190762F6A2F11249F5750408AF0E1F088235C
S11311A04AF0EE0FFF1FBB1F661F771F881F915069
S11311B05040A9F79E3F510570F014C05EC05F3FD8
S11311C0ECF3983EDCF3869577956795B795F7959C
S11311D0E7959F5FC1F7FE2B880F911D9695879524
S11311E097F9089597F99F6780E870E060E00895A3
S11311F09FEF80EC089500240A941616170618062B
S11312000906089500240A94121613061406050606
S11312100895092E0394000C11F4882352F0BB0F97
S113122040F4BF2B11F460FF04C06F5F7F4F8F4FFA
S11312309F4F089557FD9058440F551F59F05F3F35
S113124071F04795880F97FB991F61F09F3F79F0E4
S113125087950895121613061406551FF2CF469566
S1131260F1DF08C0161617061806991FF1CF8695E8
S11312707105610508940895E894BB2766277727CC
S10D1280CB0197F90895F894FFCF0D
S113128A0104070E020508000306090F0A0B0C0DD8
S113129A712087209B20B020BF20D920EB20012178
S11312AA172126213A214D2160216E217C218F218B
S11312BA3F02C80392035E032E030003D502AC0265
S11312CA850261021F020002E301C8010101010152
S11312DA01010101010101010101486F746C696E88
S11312EA6520426C696E670A6279204472616B6593
S11312FA00302E54563A576865656C206F660A4664
S113130A6F7274756E6500312E4D50333A486F749E
S113131A6C696E650A426C696E6700322E42523AF3
S113132A4176656E676572730A556C74726F6E00E6
S113133A332E4456523A4D520A526F626F74003435
S113134A2E4D50333A446F776E746F776E0A4D613F
S113135A636B6C656D6F726500352E54563A41673E
S113136A656E740A43617274657200362E4456526D
S113137A3A47616D65206F660A5468726F6E6573C9
S113138A00372E52520A7777772E69732E67642FA5
S113139A57565A766E4900382E42523A4675726941
S11313AA6F7573203700393A4E463A486F7573653C
S11313BA206F660A4361726473004723362F4162C1
S11313CA360A313636312E323220487A00412336F3
S11313DA2F4262360A313836342E363820487A009B
S11313EA42360A313937352E353320487A004337A5
S11313FA0A323039332E303020487A004323372FCB
S113140A4462370A323231372E343620487A004160
S113141A7363656E64696E670A5363616C65005031
S113142A726573732061206B65790A696E206B6536
S113143A797061640050726573732073616D6520FD
S113144A6B65790A696E2072656D6F7465005072F6
S113145A65737320627574746F6E0A696E2072659F
S113146A6D6F74650031295265636F72642061205F
S113147A6B65790A3229506C617920536F6D6574F2
S113148A68696E67004B6579207265636F7264657B
S105149A6400E8
S9030000FC
