:100000000DC1000027C1000025C1000023C1000070
:1000100021C100001FC100001DC100001BC1000064
:1000200019C1000017C1000015C1000013C1000074
:1000300011C100000FC100000DC100000BC1000084
:1000400009C1000007C1000005C1000003C1000094
:1000500001C10000FFC00000FDC00000FBC00000A7
:10006000F9C00000F7C00000F5C00000F3C00000B8
:10007000F1C00000EFC00000EDC00000EBC00000C8
:10008000E9C00000E7C00000E5C00000E3C00000D8
:10009000E1C00000DFC00000DDC00000DBC00000E8
:1000A000D9C00000D7C00000D5C00000D3C00000F8
:1000B000D1C00000CFC00000CDC00000CBC0000008
:1000C000C9C00000C7C00000C5C00000C3C0000018
:1000D000C1C00000BFC00000BDC00000BBC0000028
:1000E000B9C00000B7C00000B5C00000B3C0000038
:1000F000B1C00000AFC00000ADC00000ABC0000048
:10010000A9C00000A7C00000A5C00000A3C0000057
:10011000A1C000009FC000009DC000009BC0000067
:1001200099C0000097C0000095C0000093C0000077
:1001300091C000008FC000008DC000008BC0000087
:1001400089C0000087C0000085C0000083C0000097
:1001500081C000007FC000007DC000007BC00000A7
:1001600079C0000077C0000075C0000073C00000B7
:1001700071C000006FC000006DC000006BC00000C7
:1001800069C0000067C0000065C0000063C00000D7
:1001900061C000005FC000005DC000005BC00000E7
:1001A00059C0000057C0000055C0000053C00000F7
:1001B00051C000004FC000004DC000004BC0000007
:1001C00049C0000047C0000045C0000043C0000017
:1001D00041C000003FC000003DC000003BC0000027
:1001E00039C0000037C0000035C0000033C0000037
:1001F00031C000002FC000002DC00000B103B103CA
:10020000B503B503B703B703BB03BB03C603C603FC
:10021000C603C603C603C603BF03BF0311241FBE24
:10022000CFEFCDBFDFE3DEBF00E00CBF18BE19BECD
:100230001ABE1BBE10E2A0E0B0E2E2EBFAE000E082
:100240000BBF02C007900D92A235B107D9F71BBEB4
:1002500072D22DC4D5CE80E090E1A7E4B0E00BB619
:10026000ABBFFC0120810BBE2223CCF30895CF93BA
:10027000C82FF1DF41E050E167E470E00BB66BBFDF
:10028000FA01C0830BBECF9108958F929F92AF92D7
:10029000BF92CF92DF92EF92FF921F93CF93DF93A3
:1002A000EC010F2ECC24C394F0E1DF2EF7E4EF2E07
:1002B000F12CF02D0F2E812CF0E19F2EF7E4AF2EC4
:1002C000B12CF02D10EC0FC0C6DF89918A3031F4CB
:1002D0000BB6ABBEF40110830BBE05C00BB6EBBE74
:1002E000F60180830BBE88818111EECFDF91CF9123
:1002F0001F91FF90EF90DF90CF90BF90AF909F90B5
:100300008F900895E0EEF6E087E3808383E38483B3
:100310008FEF80932007E0E4F4E081E08083138A8C
:1003200080E8828B85E1808B80E097E4868B978BD9
:1003300081E2848B0895CF93DF931F92CDB7DEB710
:100340008FE08093800688E1898389818093970676
:10035000898180939606898180939506898180930F
:1003600094060F90DF91CF91089575DF28E380E028
:1003700090E1A7E4B0E00BB6ABBFFC0120830BBE5D
:100380006ADF2FE080E090E1A7E4B0E00BB6ABBFFE
:10039000FC0120830BBE5FDF21E080E090E1A7E459
:1003A000B0E00BB6ABBFFC0120830BBE54DF26E0F0
:1003B00080E090E1A7E4B0E00BB6ABBFFC01208386
:1003C0000BBE089548DF2FE080E090E1A7E4B0E0A5
:1003D0000BB6ABBFFC0120830BBE3DDF21E080E00C
:1003E00090E1A7E4B0E00BB6ABBFFC0120830BBEED
:1003F000089581E0809340028CE18093410285E082
:100400008093430280E38093420287E0809344021A
:1004100080E28093610281E88093600208951BDF8F
:1004200021E080E090E1A7E4B0E00BB6ABBFFC01B7
:1004300020830BBE0895CF93DF93CDB7DEB76897C7
:10044000CDBFDEBF80E1E0E0F0E2DE011196019079
:100450000D928A95E1F787E090E0A0E0B0E09BE0A4
:10046000ADE0BEE0898B9A8BAB8BBC8B1D8A8D89EE
:10047000843009F460C0A0E8B6E08D89E1E1F0E0E5
:10048000EC0FFD1FE80FF11D808114968C931497DB
:1004900018968C91189782958F70888F1F8A8F89F4
:1004A000843009F440C08F89E1E1F0E0EC0FFD1FDA
:1004B000E80FF11D80818E8B8F89E1E1F0E0EC0F78
:1004C000FD1FE80FF11D9081888D981326C014C080
:1004D0008F89E1E1F0E0EC0FFD1FE80FF11D808155
:1004E0008E8B8F89E1E1F0E0EC0FFD1FE80FF11D2D
:1004F0009081888D981311C08D89EF89F0E094E088
:10050000899FE00DF11D112481E090E08C0F9D1F6B
:10051000E80FF91F808190E013C08F898F5F8F8B68
:100520008F898430A9F68D898F5F8D8B8D8984307A
:1005300009F0A3CF03C08FEF9FEF02C08FEF9FEFB3
:100540006896CDBFDEBFDF91CF9108958F929F92C5
:10055000AF92BF92CF92DF92EF92FF921F93CF9311
:10056000DF93F82E192F5BDFCF2DD12F0F2ECC2448
:10057000C394F0E1DF2EF7E4EF2EF12CF02D0F2ED7
:10058000812CF0E19F2EF7E4AF2EB12CF02D10EC72
:100590000FC061DE89918A3031F40BB6ABBEF40135
:1005A00010830BBE05C00BB6EBBEF60180830BBEFD
:1005B00088818111EECFDF91CF911F91FF90EF9055
:1005C000DF90CF90BF90AF909F908F90089543DEC3
:1005D0002FE080E090E1A7E4B0E00BB6ABBFFC01F8
:1005E00020830BBE38DE21E080E090E1A7E4B0E09C
:1005F0000BB6ABBFFC0120830BBE0895CF93DF93F6
:100600001F92CDB7DEB7898326DE8981882359F012
:1006100028E080E090E1A7E4B0E00BB6ABBFFC01BE
:1006200020830BBE0AC02FE080E090E1A7E4B0E099
:100630000BB6ABBFFC0120830BBE998181E0911109
:1006400080E00F90DF91CF9108958F929F92AF92AB
:10065000BF92CF92DF92EF92FF92CF93DF931F92E0
:100660001F92CDB7DEB788E893E101970097E9F7CD
:100670008091640290916502992789839A836981A8
:100680007A8180E090E01CD120E030E040E05CE343
:10069000A5D120E030E040EA50E4A0D14B015C015C
:1006A00091DEC501B401DBD06B017C0180E38C0DD0
:1006B000DEDD8EE2DCDDB601882777FD8095982FA0
:1006C00001D19B01AC01C501B40164D020E030E050
:1006D00040E251E483D14B015C01C1D06B017C014C
:1006E00080E38C0DC4DDB601882777FD8095982FB7
:1006F000E9D09B01AC01C501B4014CD020E030E051
:1007000040E251E46BD1ABD080E3860FB0DD86E5EB
:10071000AEDD80E190E2B9DD89E2A9DD0F900F90B6
:10072000DF91CF91FF90EF90DF90CF90BF90AF908F
:100730009F908F900895CF93DF931F921F92CDB714
:10074000DEB781E08983DEDD10DE53DEF4DD73DEAB
:100750008A83EA81F0E0E031F105C8F7E250FF4F0B
:10076000A0C186E190E2F2DEF2CF31DFF0CF8981E5
:1007700045DF8983ECCF88E290E2E8DEE8CF6BDDED
:1007800001C063DF58DE0196E1F3E1CF85E490E23A
:10079000DDDEDDCF5058BB27AA270ED0E5C0D6D06E
:1007A00030F0DBD020F031F49F3F11F41EF4CBC0C9
:1007B0000EF4E095E7FBC1C0E92FE7D080F3BA174C
:1007C000620773078407950718F071F49EF5FFC060
:1007D0000EF4E0950B2EBA2FA02D0B01B90190015C
:1007E0000C01CA01A0011124FF27591B99F0593FA0
:1007F00050F4503E68F11A16F040A22F232F342FE8
:100800004427585FF3CF469537952795A795F04035
:100810005395C9F77EF41F16BA0B620B730B840B4A
:10082000BAF09150A1F0FF0FBB1F661F771F881F02
:10083000C2F70EC0BA0F621F731F841F48F487955A
:1008400077956795B795F7959E3F08F0B3CF939549
:10085000880F08F09927EE0F97958795089504D093
:100860006894B111B5C0089598D088F09F5790F062
:10087000B92F9927B751A0F0D1F0660F771F881FC5
:10088000991F1AF0BA95C9F712C0B13081F09FD004
:10089000B1E008959CC0672F782F8827B85F39F0A2
:1008A000B93FCCF3869577956795B395D9F73EF424
:1008B00090958095709561957F4F8F4F9F4F0895CC
:1008C000E89409C097FB3EF49095809570956195EA
:1008D0007F4F8F4F9F4F9923A9F0F92F96E9BB27A0
:1008E0009395F695879577956795B795F111F8CF1C
:1008F000FAF4BB0F11F460FF1BC06F5F7F4F8F4F87
:100900009F4F16C0882311F096E911C0772321F07C
:100910009EE8872F762F05C0662371F096E8862F14
:1009200070E060E02AF09A95660F771F881FDAF76B
:10093000880F9695879597F9089597F99F6780E8AE
:1009400070E060E008959FEF80EC089500240A9421
:100950001616170618060906089500240A9412169A
:100960001306140605060895092E0394000C11F4CD
:10097000882352F0BB0F40F4BF2B11F460FF04C07A
:100980006F5F7F4F8F4F9F4F089557FD9058440FD3
:10099000551F59F05F3F71F04795880F97FB991FDE
:1009A00061F09F3F79F0879508951216130614069B
:1009B000551FF2CF4695F1DF08C016161706180628
:1009C000991FF1CF86957105610508940895E89403
:1009D000BB2766277727CB0197F908950BD0C4CFA3
:1009E000B5DF28F0BADF18F0952309F0A6CFABCF1A
:1009F0001124EECFCADFA0F3959FD1F3950F50E0FD
:100A0000551F629FF001729FBB27F00DB11D639FC0
:100A1000AA27F00DB11DAA1F649F6627B00DA11D66
:100A2000661F829F2227B00DA11D621F739FB00D0C
:100A3000A11D621F839FA00D611D221F749F33277C
:100A4000A00D611D231F849F600D211D822F762F15
:100A50006A2F11249F5750408AF0E1F088234AF012
:100A6000EE0FFF1FBB1F661F771F881F915050405E
:100A7000A9F79E3F510570F060CFAACF5F3FECF31E
:100A8000983EDCF3869577956795B795F795E7954A
:100A90009F5FC1F7FE2B880F911D9695879597F95B
:100AA0000895EE0FFF1F0590F491E02D1994F8942E
:020AB000FFCF76
:100AB2000104070E020508000306090F0A0B0C0DBC
:100AC2002020283078004B696E6465726C65790A63
:100AD200436861726C6573004D61792074686520AA
:100AE2005368776172747A0A626520776974682044
:100AF200796F75210042652043726561746976657C
:020B02002100D0
:00000001FF
