:020000020000FC
:02000000FFC13E
:100200000104070E020508000306090F0A0B0C0D76
:02021000FF00ED
:100400000FEF00933D000FE300933E0000EF0093D9
:1004100082060FE00093810608E10093970600939F
:100420009606009395060093940603E10093E10677
:1004300003E10093E5060FEF009321070FEF009310
:10044000010701E000934004F4E0E2E500E80193D5
:1004500000E0008305E10093500400E000933900C0
:10046000B0E8A0E002D00C93FDCFEF93FF931F9371
:100470002F933F934F935F9314E037EF0027306F34
:10048000373F11F4E0E0F2E03B3F11F4E4E0F2E04A
:100490003D3F11F4E8E0F2E03E3F11F4ECE0F2E021
:1004A00024E047EF30938406000000005091880656
:1004B0005295506F406F0591541739F047952A9522
:1004C000C9F737951A95D9F60FEF5F914F913F9184
:0A04D0002F911F91FF91EF91089505
:00000001FF
