S01000004C616238435F4B432E737265639D
S1130000FDC000001FC100001DC100001BC1000095
S113001019C1000017C1000015C1000013C1000080
S113002011C100000FC100000DC100000BC1000090
S113003009C1000007C1000005C1000003C10000A0
S113004001C10000FFC00000FDC00000FBC00000B3
S1130050F9C00000F7C00000F5C00000F3C00000C4
S1130060F1C00000EFC00000EDC00000EBC00000D4
S1130070E9C00000E7C00000E5C00000E3C00000E4
S1130080E1C00000DFC00000DDC00000DBC00000F4
S1130090D9C00000D7C00000D5C00000D3C0000004
S11300A0D1C00000CFC00000CDC00000CBC0000014
S11300B0C9C00000C7C00000C5C00000C3C0000024
S11300C0C1C0000042C20000BDC00000BBC00000AF
S11300D0B9C000000DC20000B5C00000B3C00000EC
S11300E0B1C00000AFC00000ADC00000ABC0000054
S11300F0A9C00000A7C00000A5C00000A3C0000064
S1130100A1C000009FC000009DC000009BC0000073
S113011099C0000097C0000095C0000093C0000083
S113012091C000008FC000008DC000008BC0000093
S113013089C0000087C0000085C0000083C00000A3
S113014081C000007FC000007DC000007BC00000B3
S113015079C0000077C0000075C0000073C00000C3
S113016071C000006FC000006DC000006BC00000D3
S113017069C0000067C0000065C0000063C00000E3
S113018061C000005FC000005DC000005BC00000F3
S113019059C0000057C0000055C0000053C0000003
S11301A051C000004FC000004DC000004BC0000013
S11301B049C0000047C0000045C0000043C0000023
S11301C041C000003FC000000AC200003BC0000064
S11301D039C0000037C0000035C0000033C0000043
S11301E031C000002FC000002DC000002BC0000053
S11301F029C0000027C0000025C0000011241FBE34
S1130200CFEFCDBFDFE3DEBF00E00CBF18BE19BEE9
S11302101ABE1BBE10E2A0E0B0E2E2E1F6E000E0AC
S11302200BBF02C007900D92AC31B107D9F71BBECA
S113023020E3ACE1B0E201C01D92A03AB207E1F7BD
S113024020D1E5C1DDCE80E090E1A7E4B0E00BB6BB
S1130250ABBFFC0120810BBE2223CCF30895E0EE5A
S1130260F6E087E3808383E384838FEF8093200722
S1130270E0E4F4E081E08083138A80E8828B85E106
S1130280808B80E097E4868B978B81E2848B089542
S11302908FEF8093A0068093A40680938206109229
S11302A088061092000B41E14093010B1092020B5F
S11302B080EA8093030B1092040B8EE392E0809308
S11302C0280B9093290B1092200B1092210B109263
S11302D0080B1092400B30E13093410B1092420B0B
S11302E01092430B1092440B21E02093460B809311
S11302F0660B9093670B1092600B1092610B109237
S1130300480B1092000A3093010A1092020A88E204
S11303108093030A1092040A2093060A4093070A62
S113032040930C0A1092200A1092210A109290060F
S11303301092400A3093410A1092420A1092430AE2
S11303401092440A2093460A20934C0A1092600AA1
S11303501092610A8FE097E28093660A9093670A8D
S11303602093A20008956FDF28E380E090E1A7E4E2
S1130370B0E00BB6ABBFFC0120830BBE64DF2FE003
S113038080E090E1A7E4B0E00BB6ABBFFC012083B2
S11303900BBE59DF21E080E090E1A7E4B0E00BB6AA
S11303A0ABBFFC0120830BBE4EDF26E080E090E172
S11303B0A7E4B0E00BB6ABBFFC0120830BBE0895ED
S11303C081E08093000A8093400A8091FE209091FE
S11303D0FF20892B09F4FFCF08958F929F92AF924B
S11303E0BF92CF92DF92EF92FF921F93CF93DF934E
S11303F0EC010F2ECC24C394F0E1DF2EF7E4EF2EB2
S1130400F12CF02D0F2E812CF0E19F2EF7E4AF2E6E
S1130410B12CF02D10EC0FC016DF89918A3031F425
S11304200BB6ABBEF40110830BBE05C00BB6EBBE1E
S1130430F60180830BBE88818111EECFDF91CF91CD
S11304401F91FF90EF90DF90CF90BF90AF909F905F
S11304508F900895F8DE2FE080E090E1A7E4B0E00B
S11304600BB6ABBFFC0120830BBEEDDE21E080E0C8
S113047090E1A7E4B0E00BB6ABBFFC0120830BBE58
S11304800895EDDE70DF04DF4AEE50E220E031E251
S1130490CEEFD0E260E270E288EE90E2FA011192CF
S11304A01192AF01FB01D9011D921D921D921D9263
S11304B011921192E817F907B9F720573E4F4C17DC
S11304C05D0761F781E090E080931E2090931F20E8
S11304D01092FE201092FF20BDDF80E090E27DDFCD
S11304E078946EDFF894B6DF8CE090E276DFF0CF9C
S11304F01F920F920FB60F92112408B60F9218BED6
S11305008F939F938091FE209091FF20892B59F423
S113051081E090E08093FE209093FF201092000AE7
S11305201092400A04C01092FE201092FF2081E134
S113053080934C0A80930C0A9F918F910F9008BE70
S11305400F900FBE0F901F9018951F920F920FB629
S11305500F92112408B60F9218BE0BB60F921BBE51
S11305602F933F938F939F93EF93FF931092400A9F
S113057080911C2090911D20853691058CF420914A
S1130580200A3091210AFC01EE0FFF1FE05EFF4DAF
S113059020833183019680931C2090931D2006C0F4
S11305A081E090E08093FE209093FF2081E180938E
S11305B00C0A1092600A1092610A81E08093400A4A
S11305C0FF91EF919F918F913F912F910F900BBECF
S11305D00F9008BE0F900FBE0F901F9018951F929A
S11305E00F920FB60F92112408B60F9218BE8F9374
S11305F01092400B1092000B81E080934C0B8F9172
S11306000F9008BE0F900FBE0F901F901895F8948E
S1050610FFCF16
S113061252656164696E67206B657900446F6E652B
S10F0622207265636F7264696E670000EB
S9030000FC
