:10000000FDC0000017C1000015C1000013C10000B1
:1000100011C100000FC100000DC100000BC10000A4
:1000200009C1000007C1000005C1000003C10000B4
:1000300001C10000FFC00000FDC00000FBC00000C7
:10004000F9C00000F7C00000F5C00000F3C00000D8
:10005000F1C00000EFC00000EDC00000EBC00000E8
:10006000E9C00000E7C00000E5C00000E3C00000F8
:10007000E1C00000DFC00000DDC00000DBC0000008
:10008000D9C00000D7C00000D5C00000D3C0000018
:10009000D1C00000CFC00000CDC000008AC1000068
:1000A000C9C00000C7C00000C5C00000C3C0000038
:1000B000C1C00000BFC00000BDC00000BBC0000048
:1000C000B9C00000B7C00000B5C00000B3C0000058
:1000D000B1C00000AFC00000ADC00000ABC0000068
:1000E000A9C00000A7C00000A5C00000A3C0000078
:1000F000A1C000009FC000009DC000009BC0000088
:1001000099C0000097C0000095C0000093C0000097
:1001100091C000008FC000008DC000008BC00000A7
:1001200089C0000087C0000085C0000083C00000B7
:1001300081C000007FC000007DC000007BC00000C7
:1001400079C0000077C0000075C0000073C00000D7
:1001500071C000006FC000006DC000006BC00000E7
:1001600069C0000067C0000065C0000063C00000F7
:1001700061C000005FC000005DC000005BC0000007
:1001800059C0000057C0000055C0000053C0000017
:1001900051C000004FC000004DC000004BC0000027
:1001A00049C0000047C0000045C0000043C0000037
:1001B00041C000003FC000003DC000003BC0000047
:1001C00039C0000037C0000035C0000033C0000057
:1001D00031C000002FC000002DC000002BC0000067
:1001E00029C0000027C0000025C0000023C0000077
:1001F00021C000001FC000001DC0000011241FBE50
:10020000CFEFCDBFDFE3DEBF00E00CBF18BE19BEED
:100210001ABE1BBE10E2A0E0B0E2EEE7F7E000E09D
:100220000BBF02C007900D92A830B107D9F71BBED3
:10023000BBD0A3C2E5CE80E090E1A7E4B0E00BB66E
:10024000ABBFFC0120810BBE2223CCF30895CF92DB
:10025000DF92EF92FF92CF93DF93EC0188818823A6
:1002600099F00F2ECC24C394F0E1DF2EF7E4EF2EAB
:10027000F12CF02DE0DF89910BB6EBBEF601808307
:100280000BBE88818111F6CFDF91CF91FF90EF9067
:10029000DF90CF90089587E38093E10683E3809316
:1002A000E5068FEF809301078093210781E080931B
:1002B000400480E097E4809356049093570481E2D1
:1002C000809354040895B7DF28E380E090E1A7E429
:1002D000B0E00BB6ABBFFC0120830BBEACDF2FE060
:1002E00080E090E1A7E4B0E00BB6ABBFFC01208357
:1002F0000BBEA1DF21E080E090E1A7E4B0E00BB607
:10030000ABBFFC0120830BBE96DF26E080E090E1CE
:10031000A7E4B0E00BB6ABBFFC0120830BBE089591
:10032000E0E4F2E08CE1818380E1828395E09383D5
:1003300087E0848381E080A381A382A390830895D2
:100340007ADF21E080E090E1A7E4B0E00BB6ABBF3C
:10035000FC0120830BBE6FDF2CE080E090E1A7E47E
:10036000B0E00BB6ABBFFC0120830BBE0895CF936A
:10037000C82F61DF41E050E167E470E00BB66BBF6E
:10038000FA01C0830BBECF910895CF93DF931F92E4
:10039000CDB7DEB78091640290916502898389812F
:1003A0000F90DF91CF91089576DF8DDFB9DFEDDF1C
:1003B000FFCF1F920F920FB60F92112408B60F9223
:1003C00018BE09B60F9219BE0AB60F921ABE0BB626
:1003D0000F921BBECF92DF92EF92FF921F932F934B
:1003E0003F934F935F936F937F938F939F93AF93BD
:1003F000BF93CF93DF93EF93FF93E0E4F2E014A178
:10040000612F70E080E090E0A2D020E030E040E09A
:100410005CE301D120E030E040EA50E4FCD06B0125
:100420007C018EDFC701B6015FD080E3860F9FDFBE
:100430008EE29DDF20E030E040E251E4C701B601EA
:10044000EAD052D0CAE0D0E0CB01BE016FD1805DCE
:100450008EDF20E030E048EC52E4C701B601DBD08B
:1004600043D0CB01BE0162D1805D81DF80E090E2AC
:10047000EEDE812F82958F708A3010F0895C01C08A
:10048000805D75DF1F70212F30E02A3031051CF0B0
:1004900087E3810F02C080E3810F69DF89E267DFB4
:1004A00081E0E0E4F2E08683FF91EF91DF91CF916C
:1004B000BF91AF919F918F917F916F915F914F917C
:1004C0003F912F911F91FF90EF90DF90CF900F9071
:1004D0000BBE0F900ABE0F9009BE0F9008BE0F9082
:1004E0000FBE0F901F90189504D06894B1118DC065
:1004F000089570D088F09F5790F0B92F9927B75181
:10050000A0F0D1F0660F771F881F991F1AF0BA95D7
:10051000C9F712C0B13081F077D0B1E0089574C04E
:10052000672F782F8827B85F39F0B93FCCF38695CD
:1005300077956795B395D9F73EF49095809570952A
:1005400061957F4F8F4F9F4F0895E89409C097FBA7
:100550003EF490958095709561957F4F8F4F9F4F9A
:100560009923A9F0F92F96E9BB279395F6958795DE
:1005700077956795B795F111F8CFFAF4BB0F11F4A1
:1005800060FF1BC06F5F7F4F8F4F9F4F16C0882348
:1005900011F096E911C0772321F09EE8872F762F7E
:1005A00005C0662371F096E8862F70E060E02AF0BF
:1005B0009A95660F771F881FDAF7880F96958795AB
:1005C00097F9089557FD9058440F551F59F05F3F14
:1005D00071F04795880F97FB991F61F09F3F79F065
:1005E00087950895121613061406551FF2CF4695E7
:1005F000F1DF08C0161617061806991FF1CF869569
:100600007105610508940895E894BB27662777274C
:10061000CB0197F908950BD078C069D028F06ED03F
:1006200018F0952309F05AC05FC01124EECFCADF3D
:10063000A0F3959FD1F3950F50E0551F629FF001F5
:10064000729FBB27F00DB11D639FAA27F00DB11D4E
:10065000AA1F649F6627B00DA11D661F829F2227D7
:10066000B00DA11D621F739FB00DA11D621F839F5E
:10067000A00D611D221F749F3327A00D611D231F34
:10068000849F600D211D822F762F6A2F11249F5782
:1006900050408AF0E1F088234AF0EE0FFF1FBB1FA5
:1006A000661F771F881F91505040A9F79E3F510544
:1006B00070F014C0AACF5F3FECF3983EDCF3869550
:1006C00077956795B795F795E7959F5FC1F7FE2BEF
:1006D000880F911D9695879597F9089597F99F67CB
:1006E00080E870E060E008959FEF80EC08950024BA
:1006F0000A941616170618060906089500240A9487
:1007000012161306140605060895092E0394000C0C
:1007100011F4882352F0BB0F40F4BF2B11F460FF9B
:1007200004C06F5F7F4F8F4F9F4F089597FB072E39
:1007300016F4009406D077FD08D00BD007FC05D046
:100740003EF4909581959F4F0895709561957F4FE8
:100750000895AA1BBB1B51E107C0AA1FBB1FA61708
:10076000B70710F0A61BB70B881F991F5A95A9F75A
:0E07700080959095BC01CD010895F894FFCFBF
:08077E0020562028305800002D
:00000001FF
