:020000020000FC
:02000000FFC13E
:100200000104070E020508000306090F0A0B0C0D76
:02021000FF00ED
:100400000FEF00933D000FE300933E0000EF0093D9
:1004100082060FE00093810608E10093970600939F
:100420009606009395060093940607E30093E10671
:1004300003E30093E5060FEF009321070FEF00930E
:10044000010701E000934004F4E0E2E500E80193D5
:1004500000E0008305E100935004F4E0E6E500E0ED
:10046000019307E4008301E20093540407E400933E
:100470003900B0E2A0E000933A00D0EAC0E00AEA16
:100480000D93BD17E9F7AC17D9F7B0E2A0E0E0E0B3
:10049000F2E224E61C911AD01D91BD17D9F7AC17D2
:1004A000C9F7B0E2A0E005E50D93BD17E9F7AC1779
:1004B000D9F7B0E2A0E0E0E0F4E224E61C9106D037
:1004C0001D91BD17D9F7AC17C9F7FFCF203029F020
:0C04D000101719F0A193B1932A9508951C
:00000001FF
