:10000000FDC0000017C1000015C1000013C10000B1
:1000100011C100000FC100000DC100000BC10000A4
:1000200009C1000007C1000005C1000003C10000B4
:1000300001C10000FFC00000FDC00000FBC00000C7
:10004000F9C00000F7C00000F5C00000F3C00000D8
:10005000F1C00000EFC00000EDC00000EBC00000E8
:10006000E9C00000E7C00000E5C00000E3C00000F8
:10007000E1C00000DFC00000DDC00000DBC0000008
:10008000D9C00000D7C00000D5C00000D3C0000018
:10009000D1C00000CFC00000CDC00000CBC0000028
:1000A000C9C00000C7C00000C5C00000C3C0000038
:1000B000C1C00000BFC00000BDC00000BBC0000048
:1000C000B9C00000B7C00000B5C00000B3C0000058
:1000D000B1C00000AFC00000ADC00000ABC0000068
:1000E000A9C00000A7C00000A5C00000A3C0000078
:1000F000A1C000009FC000009DC000009BC0000088
:1001000099C0000097C0000095C0000093C0000097
:1001100091C000008FC000008DC000008BC00000A7
:1001200089C0000087C0000085C0000083C00000B7
:1001300081C000007FC000007DC000007BC00000C7
:1001400079C0000077C0000075C0000073C00000D7
:1001500071C000006FC000006DC000006BC00000E7
:1001600069C0000067C0000065C0000063C00000F7
:1001700061C000005FC000005DC000005BC0000007
:1001800059C0000057C0000055C0000053C0000017
:1001900051C000004FC000004DC000004BC0000027
:1001A00049C0000047C0000045C0000043C0000037
:1001B00041C000003FC000003DC000003BC0000047
:1001C00039C0000037C0000035C0000033C0000057
:1001D00031C000002FC000002DC000002BC0000067
:1001E00029C0000027C0000025C0000023C0000077
:1001F00021C000001FC000001DC0000011241FBE50
:10020000CFEFCDBFDFE3DEBF00E00CBF18BE19BEED
:100210001ABE1BBE10E2A0E0B0E2E6EDF7E000E09F
:100220000BBF02C007900D92A630B107D9F71BBED5
:1002300044D1CFC2E5CE80E090E1A7E4B0E00BB6B8
:10024000ABBFFC0120810BBE2223CCF30895CF93DA
:10025000C82FF1DF41E050E167E470E00BB66BBFFF
:10026000FA01C0830BBECF9108958F929F92AF92F7
:10027000BF92CF92DF92EF92FF921F93CF93DF93C3
:10028000EC010F2ECC24C394F0E1DF2EF7E4EF2E27
:10029000F12CF02D0F2E812CF0E19F2EF7E4AF2EE4
:1002A000B12CF02D10EC0FC0C6DF89918A3031F4EB
:1002B0000BB6ABBEF40110830BBE05C00BB6EBBE94
:1002C000F60180830BBE88818111EECFDF91CF9143
:1002D0001F91FF90EF90DF90CF90BF90AF909F90D5
:1002E0008F900895A8DF28E380E090E1A7E4B0E0D4
:1002F0000BB6ABBFFC0120830BBE9DDF2FE080E07F
:1003000090E1A7E4B0E00BB6ABBFFC0120830BBECD
:1003100092DF21E080E090E1A7E4B0E00BB6ABBF54
:10032000FC0120830BBE87DF26E080E090E1A7E49C
:10033000B0E00BB6ABBFFC0120830BBE08957BDFA2
:100340002FE080E090E1A7E4B0E00BB6ABBFFC018A
:1003500020830BBE70DF21E080E090E1A7E4B0E0F5
:100360000BB6ABBFFC0120830BBE0895E0EEF6E0B8
:1003700087E3808383E384838FEF80932007E0E427
:10038000F4E081E08083138A80E8828B85E1808BB2
:1003900080E097E4868B978B81E2848B089581E0DF
:1003A000809340028CE18093410285E08093430278
:1003B00080E38093420287E08093440280E280934E
:1003C000610281E88093600208958F929F92AF92BC
:1003D000BF92CF92DF92EF92FF92CF93DF931F9263
:1003E0001F92CDB7DEB788E893E101970097E9F750
:1003F0008091640290916502992789839A8369812B
:100400007A8180E090E0F4D020E030E040E05CE3EE
:100410007DD120E030E040E250E478D14B015C0136
:100420008EDFC501B401B3D06B017C0180E38C0D7C
:100430000EDF8EE20CDFB601882777FD8095982FBE
:10044000D9D09B01AC01C501B4013CD020E030E023
:1004500040E251E45BD14B015C0199D06B017C011E
:1004600080E38C0DF4DEB601882777FD8095982F08
:10047000C1D09B01AC01C501B40124D020E030E023
:1004800040E251E443D183D080E3860FE0DE86E58D
:10049000DEDE80E090E2E9DE8DE5D9DE89E2D7DEBE
:1004A0000F900F90DF91CF91FF90EF90DF90CF9062
:1004B000BF90AF909F908F90089558DF13DF6FDF4C
:1004C00084DFFECF5058BB27AA270ED0E5C0D6D078
:1004D00030F0DBD020F031F49F3F11F41EF4CBC09C
:1004E0000EF4E095E7FBC1C0E92FE7D080F3BA171F
:1004F000620773078407950718F071F49EF5FFC033
:100500000EF4E0950B2EBA2FA02D0B01B90190012E
:100510000C01CA01A0011124FF27591B99F0593F72
:1005200050F4503E68F11A16F040A22F232F342FBA
:100530004427585FF3CF469537952795A795F04008
:100540005395C9F77EF41F16BA0B620B730B840B1D
:10055000BAF09150A1F0FF0FBB1F661F771F881FD5
:10056000C2F70EC0BA0F621F731F841F48F487952D
:1005700077956795B795F7959E3F08F0B3CF93951C
:10058000880F08F09927EE0F97958795089504D066
:100590006894B111B5C0089598D088F09F5790F035
:1005A000B92F9927B751A0F0D1F0660F771F881F98
:1005B000991F1AF0BA95C9F712C0B13081F09FD0D7
:1005C000B1E008959CC0672F782F8827B85F39F075
:1005D000B93FCCF3869577956795B395D9F73EF4F7
:1005E00090958095709561957F4F8F4F9F4F08959F
:1005F000E89409C097FB3EF49095809570956195BD
:100600007F4F8F4F9F4F9923A9F0F92F96E9BB2772
:100610009395F695879577956795B795F111F8CFEE
:10062000FAF4BB0F11F460FF1BC06F5F7F4F8F4F59
:100630009F4F16C0882311F096E911C0772321F04F
:100640009EE8872F762F05C0662371F096E8862FE7
:1006500070E060E02AF09A95660F771F881FDAF73E
:10066000880F9695879597F9089597F99F6780E881
:1006700070E060E008959FEF80EC089500240A94F4
:100680001616170618060906089500240A9412166D
:100690001306140605060895092E0394000C11F4A0
:1006A000882352F0BB0F40F4BF2B11F460FF04C04D
:1006B0006F5F7F4F8F4F9F4F089557FD9058440FA6
:1006C000551F59F05F3F71F04795880F97FB991FB1
:1006D00061F09F3F79F0879508951216130614066E
:1006E000551FF2CF4695F1DF08C0161617061806FB
:1006F000991FF1CF86957105610508940895E894D6
:10070000BB2766277727CB0197F908950BD0C4CF75
:10071000B5DF28F0BADF18F0952309F0A6CFABCFEC
:100720001124EECFCADFA0F3959FD1F3950F50E0CF
:10073000551F629FF001729FBB27F00DB11D639F93
:10074000AA27F00DB11DAA1F649F6627B00DA11D39
:10075000661F829F2227B00DA11D621F739FB00DDF
:10076000A11D621F839FA00D611D221F749F33274F
:10077000A00D611D231F849F600D211D822F762FE8
:100780006A2F11249F5750408AF0E1F088234AF0E5
:10079000EE0FFF1FBB1F661F771F881F9150504031
:1007A000A9F79E3F510570F060CFAACF5F3FECF3F1
:1007B000983EDCF3869577956795B795F795E7951D
:1007C0009F5FC1F7FE2B880F911D9695879597F92E
:0607D0000895F894FFCF2C
:0607D6002020283078000D
:00000001FF
