:020000020000FC
:02000000FFC13E
:04020000E7C381C30C
:1004000000E00093A1060FEF009381060FEF009329
:10041000860648E15CE31091A806889463E0109199
:10042000A80616FD02C00ED0FACFE0E0F2E08894F4
:100430006627659174E01091A80616FFEECF09D0EB
:10044000FACFFFCF609384060ED0660F08F4616088
:1004500008956093840611D07A9519F474E0E0E071
:10046000F2E06591089528E238EA3A95F1F72A9585
:10047000D9F74A95C1F748E1089528E238EA3A9554
:0E048000F1F72A95D9F75A95C1F75CE3089574
:00000001FF
