S00C00004C6162382E73726563D1
S1130000FDC000001FC100001DC100001BC1000095
S113001019C1000017C1000015C1000013C1000080
S113002011C100000FC100000DC100000BC1000090
S113003009C1000007C1000060C6000003C1000040
S113004001C10000FFC00000FDC00000FBC00000B3
S1130050CDC50000F7C00000F5C00000F3C00000EB
S1130060F1C00000EFC00000EDC00000EBC00000D4
S1130070E9C00000E7C00000E5C00000E3C00000E4
S1130080E1C00000DFC00000DDC00000DBC00000F4
S1130090D9C00000D7C00000D5C00000D3C0000004
S11300A0D1C00000CFC00000CDC00000CBC0000014
S11300B0C9C00000C7C00000C5C00000C3C0000024
S11300C0C1C00000BFC00000BDC00000BBC0000034
S11300D0B9C00000B7C00000B5C00000B3C0000044
S11300E0B1C00000AFC00000ADC00000ABC0000054
S11300F0A9C00000A7C00000A5C00000A3C0000064
S1130100A1C000009FC000009DC000009BC0000073
S113011099C0000097C0000095C0000093C0000083
S113012091C000008FC000008DC000008BC0000093
S113013089C0000087C0000085C0000083C00000A3
S113014081C000007FC000007DC000007BC00000B3
S113015079C0000077C0000075C0000073C00000C3
S113016071C000006FC000006DC000006BC00000D3
S113017069C0000067C0000065C0000063C00000E3
S113018061C000005FC000005DC000005BC00000F3
S113019059C0000057C0000055C0000053C0000003
S11301A051C000004FC000004DC000004BC0000013
S11301B049C0000047C0000046C5000043C000001D
S11301C041C000003FC000003DC000003BC0000033
S11301D039C0000037C0000035C0000033C0000043
S11301E031C000002FC000002DC000002BC0000053
S11301F029C0000027C0000025C0000011241FBE34
S1130200CFEFCDBFDFE3DEBF00E00CBF18BE19BEE9
S11302101ABE1BBE11E2A0E0B0E2EEE2FDE000E097
S11302200BBF02C007900D92A03DB107D9F71BBECA
S113023023E3A0EDB1E201C01D92A232B207E1F7BF
S113024062D473C5DDCE80E090E1A7E4B0E00BB6E4
S1130250ABBFFC0120810BBE2223CCF30895E0EE5A
S1130260F6E087E3808383E384838FEF8093200722
S1130270E0E4F4E081E08083138A80E8828B85E106
S1130280808B80E097E4868B978B81E2848B089542
S1130290CF93DF931F92CDB7DEB78FE080938006B4
S11302A088E1898389818093970689818093960662
S11302B08981809395068981809394060F90DF91BC
S11302C0CF91089520E12093A0062093A5061092D3
S11302D0400B81E18093410B1092420B30EA309342
S11302E0430B1092440B8EE392E08093680B90933F
S11302F0690B1092600B1092610B1092480B1092D4
S11303000008209301081092020830930308109209
S1130310040831E030930608809326089093270858
S11303201092200810922108109208081092400898
S113033020934108109242081092430810924408F6
S1130340309346088FE097E280936608909367089D
S11303501092600810926108109248083093A20627
S11303601092B00688E78093800188E28093030BA3
S11303702093010B3093000BF89481E08093070BDA
S11303808093A20078941092200B1092210B10926B
S1130390280B1092290B089556DF28E380E090E1A2
S11303A0A7E4B0E00BB6ABBFFC0120830BBE4BDF70
S11303B02FE080E090E1A7E4B0E00BB6ABBFFC0116
S11303C020830BBE40DF21E080E090E1A7E4B0E0B1
S11303D00BB6ABBFFC0120830BBE35DF26E080E00B
S11303E090E1A7E4B0E00BB6ABBFFC0120830BBEE9
S11303F00895CF93DF93CDB7DEB76797CDBFDEBF48
S113040080E1E0E0F0E2DE01119601900D928A9520
S1130410E1F787E090E0A0E0B0E09BE0ADE0BEE073
S1130420898B9A8BAB8BBC8B1D8A8D89843009F4A4
S11304304DC0A0E8B6E08D89E1E1F0E0EC0FFD1FCE
S1130440E80FF11D808114968C93149718968C9163
S1130450189782958F708F8B1E8A8E89843071F1E4
S11304608E89E1E1F0E0EC0FFD1FE80FF11D9081B2
S11304708F8998131DC00BC08E89E1E1F0E0EC0F69
S1130480FD1FE80FF11D90818F89981311C08D898C
S1130490EE89F0E094E0899FE00DF11D112481E0E4
S11304A090E08C0F9D1FE80FF91F808190E013C02E
S11304B08E898F5F8E8B8E898430F1F68D898F5F64
S11304C08D8B8D89843009F0B6CF03C08FEF9FEFF9
S11304D002C08FEF9FEF6796CDBFDEBFDF91CF9154
S11304E008958F929F92AF92BF92CF92DF92EF9234
S11304F0FF921F93CF93DF93EC010F2ECC24C39470
S1130500F0E1DF2EF7E4EF2EF12CF02D0F2E812CED
S1130510F0E19F2EF7E4AF2EB12CF02D10EC0FC0BC
S113052092DE89918A3031F40BB6ABBEF4011083AC
S11305300BBE05C00BB6EBBEF60180830BBE8881F3
S11305408111EECFDF91CF911F91FF90EF90DF905B
S1130550CF90BF90AF909F908F900895CF93DF93EB
S1130560CEE9D2E224EB32E262EB72E244E552E3FA
S11305708CE193E319921992FA01D9011D921D920B
S11305801D921D9211921192E817F907B9F720579D
S11305903E4FC617D70771F710921C3310921D33C4
S11305A0DF91CF9108954FDE2FE080E090E1A7E442
S11305B0B0E00BB6ABBFFC0120830BBE44DE21E0F0
S11305C080E090E1A7E4B0E00BB6ABBFFC01208370
S11305D00BBE08958093680B9093690B4093260893
S11305E0509327081092600B1092610B1092200810
S11305F010922108209300086093400BA0E2B8E019
S1130600E6E2F8E02D913C911197808191812817C1
S11306103907C1F708953F924F925F926F927F928C
S11306208F929F92AF92BF92CF92DF92EF92FF92FE
S11306300F931F93CF93DF93CDB7DEB7CA54D1097D
S1130640CDBFDEBF8C0180E2E0E1F0E2DE01119675
S113065001900D928A95E1F78CE1E0E3F0E2DE018E
S1130660919601900D928A95E1F78EE0ECE4F0E228
S1130670DE01DD9601900D928A95E1F70E301105A9
S113068069F00F30110509F45FC00F3F2FEF120717
S113069009F0FBC1AEDE0196E9F315C2789483DF5D
S11306A08D8D9E8D1EDF2A96FFAC2A9709AD1AAD5B
S11306B025E030E042EF58E36F2DC8018BDF25E0E1
S11306C030E042EF58E321966FAD21978FA198A5B2
S11306D081DF25E030E042EF58E323966FAD2397A6
S11306E08BA59CA577DF25E030E042EF58E3249604
S11306F06FAD24978DA59EA56DDF25E030E042EF18
S113070058E326966FAD269789A99AA963DF25E059
S113071030E042EF58E36DAD89A19AA15BDF25E09B
S113072030E042EF58E329966FAD29978FA998AD31
S113073051DF25E030E042EF58E36F2DC8014ADF76
S113074058DE0196E9F7BFC178942DDF8AE590E27F
S1130750C8DE2196DFAC21970FA118A524E030E074
S113076044E254EF6D2DC80135DF24E030E044E26B
S113077054EF6D2DC8012EDF24E030E044E254EF45
S11307806D2DC80127DF24E030E044E254EF2496C5
S11307906FAD24978DA59EA51DDF2396CFAC23971F
S11307A0EBA4FCA424E030E044E254EF6C2DC70138
S11307B011DF24E030E044E254EF6D2DC8010ADF7C
S11307C0DEAC0BA11CA124E030E044E254EF6D2D1B
S11307D0C80100DF25E030E042EF58E36C2DC7018B
S11307E0F9DE25E030E042EF58E36D2DC801F2DE7A
S11307F003EA16E0BB24BA94F801B082DEACEBA0A5
S1130800FCA025E030E049E05DE36D2DC701E2DEA8
S113081025E030E049E05DE36D2DC701DBDE25E036
S113082030E049E05DE36D2DC701D4DE25E030E022
S113083049E05DE36D2DC701CDDEF801B08224E00F
S113084030E044E254EF24966FAD24978DA59EA525
S1130850C1DE23969FAC2397CBA4DCA424E030E034
S113086044E254EF692DC601B5DE24E030E044E2F1
S113087054EF21966FAD21978FA198A5ABDEAEAC56
S1130880EBA0FCA024E030E044E254EF6A2DC70161
S1130890A1DE25E030E049E05DE3692DC6019ADE82
S11308A025E030E049E05DE36A2DC70193DE25E0F1
S11308B030E049E05DE36DAD89A19AA18BDEF801DA
S11308C0B082DEACEBA0FCA025E030E049E05DE3C3
S11308D06D2DC7017FDE25E030E049E05DE36D2D3D
S11308E0C70178DE25E030E049E05DE36D2DC70106
S11308F071DE25E030E049E05DE36D2DC7016ADE7D
S1130900F801B08224964FAC2497ADA4BEA424E091
S113091030E044E254EF642DC5015CDE2A967FACDE
S11309202A9709AD1AAD25E030E04FE957E1672D6C
S1130930C80150DE24E030E044E254EF672DC801E2
S113094049DE24E030E044E254EF672DC80142DE82
S11309506DACE9A0FAA024E030E044E254EF662D47
S1130960C70138DE24E030E044E254EF672DC801CB
S113097031DE24E030E044E254EF672DC8012ADE82
S11309802B963FAC2B978BAC9CAC25E030E042EF30
S113099058E3632DC4011EDE24E030E044E254EF4A
S11309A0642DC50117DE24E030E044E254EF662DE7
S11309B0C70110DE26965FAC2697C9A8DAA824E002
S11309C030E044E254EF652DC60104DE24E030E05B
S11309D044E254EF642DC501FDDD24E030E044E23F
S11309E054EF652DC601F6DD24E030E044E254EF17
S11309F0652DC601EFDD25E030E042EF58E3662DBA
S1130A00C701E8DD24E030E044E254EF672DC8017B
S1130A10E1DD24E030E044E254EF662DC701DADD85
S1130A2024E030E044E254EF672DC801D3DD24E034
S1130A3030E044E254EF662DC701CCDD24E030E021
S1130A4044E254EF672DC801C5DD24E030E044E200
S1130A5054EF662DC701BEDD24E030E044E254EFDC
S1130A60672DC801B7DD24E030E044E254EF662D81
S1130A70C701B0DD25E030E042EF58E3632DC40147
S1130A80A9DDB7DC0196E9F71EC078948CDD780106
S1130A90EE0CFF1C81E090E08C0F9D1FE80EF91E08
S1130AA0F701808191811DDDFE01E00FF11F24E03B
S1130AB030E044E254EF65ADF70180A191A18ADDF5
S1130AC098DC0196E9F7C65BDF4FCDBFDEBFDF914F
S1130AD0CF911F910F91FF90EF90DF90CF90BF9037
S1130AE0AF909F908F907F906F905F904F903F90CA
S1130AF0089578948091B2229091B322892B09F4BD
S1130B00FFCFF8940895ABDB47DCC2DBDBDB26DDEB
S1130B101092D2211092D32181E090E08093B222EE
S1130B209093B32284E791E2DCDC63DC81309105AD
S1130B3039F082309105B1F7029709F443C045C0FA
S1130B40019709F048C055DC0197E9F32CDD84E9ED
S1130B5091E2C7DC4EDCEC0180931E3390931F338B
S1130B6048DC80931E3390931F33C817D907C1F311
S1130B702FE78AE196E0215080409040E1F700C0E1
S1130B80000011DD8AEA91E2ACDC2FE78AE196E00D
S1130B90215080409040E1F700C00000AADF10928D
S1130BA0D0211092D121FFDC83EC91E29ADC2FE377
S1130BB082E49FE0215080409040E1F700C00000B3
S1130BC0F2DCB0CF16DC0297E9F393DF8FE090E01C
S1130BD022DDE9DCA7CFE7DC84E991E282DC09DCF1
S1130BE0EC0180931E3390931F33BACF1F920F9260
S1130BF00FB60F92112408B60F9218BE8F939F93CD
S1130C001092400810926008109261088091B222FC
S1130C109091B322892B41F481E090E08093B22239
S1130C209093B3221092400881E080934C0881E1B4
S1130C3080930C0B9F918F910F9008BE0F900FBE65
S1130C400F901F9018951F920F920FB60F921124B8
S1130C5008B60F9218BE09B60F9219BE0BB60F92C2
S1130C601BBE2F933F938F939F93AF93BF93EF93A9
S1130C70FF931092400881E080934C0881E18093B7
S1130C800C0B8091D0219091D12185369105B4F43B
S1130C90E0E6F8E020813181DC01AA0FBB1FAC52F1
S1130CA0BE4D2D933C9301968093D0219093D121F6
S1130CB01082118281E0809340080CC081E090E0B2
S1130CC08093B2229093B32210924008109260084D
S1130CD010926108FF91EF91BF91AF919F918F9115
S1130CE03F912F910F900BBE0F9009BE0F9008BE3D
S1130CF00F900FBE0F901F9018951F920F920FB672
S1130D000F92112408B60F9218BE8F931092000808
S1130D101092000B81E080930C088F910F9008BE15
S1110D200F900FBE0F901F901895F894FFCF00
S1130D2E0104070E020508000306090F0A0B0C0D39
S1130D3E71207F208D20A020AE20C120CF20DD2069
S1130D4EF020FE2011212421322140215321632140
S1130D5E3F02C80392035E032E030003D502AC02C6
S1130D6E850261021F020002E301C80101010101B3
S1130D7E01010101010101010101486F746C696EE9
S1130D8E6520426C696E670A6279204472616B65F4
S1130D9E0041360A313736302E303020487A00433F
S1130DAE360A313034362E353020487A0043233615
S1130DBE2F4462360A313130382E373320487A00C8
S1130DCE44360A313137342E363620487A004423DD
S1130DDE362F4562360A313234342E353120487A74
S1130DEE0045360A313331382E353120487A0046E3
S1130DFE360A313339362E393120487A00462336B5
S1130E0E2F4762360A313437392E393820487A0062
S1130E1E47360A313536372E393820487A0047237B
S1130E2E362F4162360A313636312E323220487A26
S1130E3E004123362F4262360A313836342E363884
S1130E4E20487A0042360A313937352E3533204858
S1130E5E7A0043370A323039332E303020487A0044
S1130E6E4323372F4462370A323231372E34362039
S1130E7E487A00417363656E64696E670A536361F1
S1130E8E6C650043204D616A6F720A41727065721F
S1130E9E67696F0031295265636F72642061206B3C
S1130EAE65790A3229506C617920536F6D657468C7
S1130EBE696E670050726573732061206B65790AE1
S1130ECE696E206B6579706164005072657373206E
S1130EDE73616D65206B65790A696E2072656D6F3D
S1130EEE7465004B6579207265636F726465640086
S9030000FC
