S01200004C6162385F66696E616C2E7372656362
S1130000FDC000001FC100001DC100001BC1000095
S113001019C1000017C1000015C1000013C1000080
S113002011C100000FC100000DC100000BC1000090
S113003009C1000007C10000C4C5000003C10000DD
S113004001C10000FFC00000FDC00000FBC00000B3
S113005035C50000F7C00000F5C00000F3C0000083
S1130060F1C00000EFC00000EDC00000EBC00000D4
S1130070E9C00000E7C00000E5C00000E3C00000E4
S1130080E1C00000DFC00000DDC00000DBC00000F4
S1130090D9C00000D7C00000D5C00000D3C0000004
S11300A0D1C00000CFC00000CDC00000CBC0000014
S11300B0C9C00000C7C00000C5C00000C3C0000024
S11300C0C1C00000BFC00000BDC00000BBC0000034
S11300D0B9C00000B7C00000B5C00000B3C0000044
S11300E0B1C00000AFC00000ADC00000ABC0000054
S11300F0A9C00000A7C00000A5C00000A3C0000064
S1130100A1C000009FC000009DC000009BC0000073
S113011099C0000097C0000095C0000093C0000083
S113012091C000008FC000008DC000008BC0000093
S113013089C0000087C0000085C0000083C00000A3
S113014081C000007FC000007DC000007BC00000B3
S113015079C0000077C0000075C0000073C00000C3
S113016071C000006FC000006DC000006BC00000D3
S113017069C0000067C0000065C0000063C00000E3
S113018061C000005FC000005DC000005BC00000F3
S113019059C0000057C0000055C0000053C0000003
S11301A051C000004FC000004DC000004BC0000013
S11301B049C0000047C00000ACC4000043C00000B8
S11301C041C000003FC000003DC000003BC0000033
S11301D039C0000037C0000035C0000033C0000043
S11301E031C000002FC000002DC000002BC0000053
S11301F029C0000027C0000025C0000011241FBE34
S1130200CFEFCDBFDFE3DEBF00E00CBF18BE19BEE9
S11302101ABE1BBE11E2A0E0B0E2E6EFFBE000E094
S11302200BBF02C007900D92A43AB107D9F71BBEC9
S113023022E3A4EAB1E201C01D92A832B207E1F7B9
S113024035D4D7C4DDCE80E090E1A7E4B0E00BB6AE
S1130250ABBFFC0120810BBE2223CCF30895E0EE5A
S1130260F6E087E3808383E384838FEF8093200722
S1130270E0E4F4E081E08083138A80E8828B85E106
S1130280808B80E097E4868B978B81E2848B089542
S1130290CF93DF931F92CDB7DEB78FE080938006B4
S11302A088E1898389818093970689818093960662
S11302B08981809395068981809394060F90DF91BC
S11302C0CF91089520E12093A0062093A5068FEFF7
S11302D080934406809340061092400B81E1809302
S11302E0410B1092420B30EA3093430B1092440BB3
S11302F08EE392E08093680B9093690B1092600BED
S11303001092610B1092480B109200082093010880
S113031010920208309303081092040821E02093FD
S113032006088093260890932708109220081092BC
S1130330210810920808089586DF28E380E090E100
S1130340A7E4B0E00BB6ABBFFC0120830BBE7BDFA0
S11303502FE080E090E1A7E4B0E00BB6ABBFFC0176
S113036020830BBE70DF21E080E090E1A7E4B0E0E1
S11303700BB6ABBFFC0120830BBE65DF26E080E03B
S113038090E1A7E4B0E00BB6ABBFFC0120830BBE49
S11303900895CF93DF93CDB7DEB76797CDBFDEBFA8
S11303A080E1E0E0F0E2DE01119601900D928A9581
S11303B0E1F787E090E0A0E0B0E09BE0ADE0BEE0D4
S11303C0898B9A8BAB8BBC8B1D8A8D89843009F405
S11303D04DC0A0E8B6E08D89E1E1F0E0EC0FFD1F2F
S11303E0E80FF11D808114968C93149718968C91C4
S11303F0189782958F708F8B1E8A8E89843071F145
S11304008E89E1E1F0E0EC0FFD1FE80FF11D908112
S11304108F8998131DC00BC08E89E1E1F0E0EC0FC9
S1130420FD1FE80FF11D90818F89981311C08D89EC
S1130430EE89F0E094E0899FE00DF11D112481E044
S113044090E08C0F9D1FE80FF91F808190E013C08E
S11304508E898F5F8E8B8E898430F1F68D898F5FC4
S11304608D8B8D89843009F0B6CF03C08FEF9FEF59
S113047002C08FEF9FEF6796CDBFDEBFDF91CF91B4
S113048008958F929F92AF92BF92CF92DF92EF9294
S1130490FF921F93CF93DF93EC010F2ECC24C394D0
S11304A0F0E1DF2EF7E4EF2EF12CF02D0F2E812C4E
S11304B0F0E19F2EF7E4AF2EB12CF02D10EC0FC01D
S11304C0C2DE89918A3031F40BB6ABBEF4011083DD
S11304D00BBE05C00BB6EBBEF60180830BBE888154
S11304E08111EECFDF91CF911F91FF90EF90DF90BC
S11304F0CF90BF90AF909F908F900895CF93DF934C
S11305008FEF9FEF8093A4219093A5211092A621B1
S11305101092A721CAEAD1E22EEB31E26EEB71E22E
S11305204EE551E386E292E319921992FA01D90158
S11305301D921D921D921D9211921192E817F907B6
S1130540B9F720573E4FC617D70771F710922632D6
S1130550109227321092A8211092A921DF91CF91F5
S1130560089571DE2FE080E090E1A7E4B0E00BB6DF
S1130570ABBFFC0120830BBE66DE21E080E090E18E
S1130580A7E4B0E00BB6ABBFFC0120830BBE08951B
S11305908093680B9093690B409326085093270827
S11305A01092600B1092610B109220081092210897
S11305B0209300086093400BA0E2B8E0E6E2F8E084
S11305C02D913C9111978081918128173907C1F7AA
S11305D01092400B08953F924F925F926F927F92D8
S11305E08F929F92AF92BF92CF92DF92EF92FF923F
S11305F00F931F93CF93DF93CDB7DEB7CA54D109BE
S1130600CDBFDEBF8C0180E2E0E1F0E2DE011196B5
S113061001900D928A95E1F78CE1E0E3F0E2DE01CE
S1130620919601900D928A95E1F78EE0ECE4F0E268
S1130630DE01DD9601900D928A95E1F70E301105E9
S113064051F00F30110509F45CC00F3F2FEF120772
S113065009F0F8C115C2789484DF8D8D9E8D11DF69
S11306602A96FFAC2A9709AD1AAD25E030E042EF97
S113067058E36F2DC8018CDF25E030E042EF58E3EA
S113068021966FAD21978FA198A582DF25E030E0F8
S113069042EF58E323966FAD23978BA59CA578DF93
S11306A025E030E042EF58E324966FAD24978DA502
S11306B09EA56EDF25E030E042EF58E326966FAD4D
S11306C0269789A99AA964DF25E030E042EF58E330
S11306D06DAD89A19AA15CDF25E030E042EF58E3DB
S11306E029966FAD29978FA998AD52DF25E030E0A8
S11306F042EF58E36F2DC8014BDF4BDE0196E9F75B
S1130700BFC178942EDF8AE590E2BBDE2196DFAC90
S113071021970FA118A524E030E044E254EF6D2D99
S1130720C80136DF24E030E044E254EF6D2DC80107
S11307302FDF24E030E044E254EF6D2DC80128DFC0
S113074024E030E044E254EF24966FAD24978DA565
S11307509EA51EDF2396CFAC2397EBA4FCA424E034
S113076030E044E254EF6C2DC70112DF24E030E0A6
S113077044E254EF6D2DC8010BDFDEAC0BA11CA1CC
S113078024E030E044E254EF6D2DC80101DF25E0A0
S113079030E042EF58E36C2DC701FADE25E030E08B
S11307A042EF58E36D2DC801F3DE03EA16E0BB24E3
S11307B0BA94F801B082DEACEBA0FCA025E030E0F6
S11307C049E05DE36D2DC701E3DE25E030E049E05B
S11307D05DE36D2DC701DCDE25E030E049E05DE33B
S11307E06D2DC701D5DE25E030E049E05DE36D2DD8
S11307F0C701CEDEF801B08224E030E044E254EFD9
S113080024966FAD24978DA59EA5C2DE23969FAC3A
S11308102397CBA4DCA424E030E044E254EF692D18
S1130820C601B6DE24E030E044E254EF21966FAD19
S113083021978FA198A5ACDEAEACEBA0FCA024E080
S113084030E044E254EF6A2DC701A2DE25E030E037
S113085049E05DE3692DC6019BDE25E030E049E017
S11308605DE36A2DC70194DE25E030E049E05DE3F5
S11308706DAD89A19AA18CDEF801B082DEACEBA04B
S1130880FCA025E030E049E05DE36D2DC70180DE8A
S113089025E030E049E05DE36D2DC70179DE25E018
S11308A030E049E05DE36D2DC70172DE25E030E004
S11308B049E05DE36D2DC7016BDEF801B08224963B
S11308C04FAC2497ADA4BEA424E030E044E254EF3E
S11308D0642DC5015DDE2A967FAC2A9709AD1AAD59
S11308E025E030E04FE957E1672DC80151DE24E0EF
S11308F030E044E254EF672DC8014ADE24E030E0E2
S113090044E254EF672DC80143DE6DACE9A0FAA0C0
S113091024E030E044E254EF662DC70139DE24E0E0
S113092030E044E254EF672DC80132DE24E030E0C9
S113093044E254EF672DC8012BDE2B963FAC2B9776
S11309408BAC9CAC25E030E042EF58E3632DC4014E
S11309501FDE24E030E044E254EF642DC50118DECC
S113096024E030E044E254EF662DC70111DE269600
S11309705FAC2697C9A8DAA824E030E044E254EF3B
S1130980652DC60105DE24E030E044E254EF642D19
S1130990C501FEDD24E030E044E254EF652DC601DC
S11309A0F7DD24E030E044E254EF652DC601F0DDCC
S11309B025E030E042EF58E3662DC701E9DD24E08D
S11309C030E044E254EF672DC801E2DD24E030E07A
S11309D044E254EF662DC701DBDD24E030E044E25D
S11309E054EF672DC801D4DD24E030E044E254EF35
S11309F0662DC701CDDD24E030E044E254EF672DDD
S1130A00C801C6DD24E030E044E254EF662DC7019E
S1130A10BFDD24E030E044E254EF672DC801B8DDC7
S1130A2024E030E044E254EF662DC701B1DD25E057
S1130A3030E042EF58E3632DC401AADDAADC01963D
S1130A40E9F71EC078948DDD7801EE0CFF1C81E07F
S1130A5090E08C0F9D1FE80EF91EF70180819181B3
S1130A6010DDFE01E00FF11F24E030E044E254EF1A
S1130A7065ADF70180A191A18BDD8BDC0196E9F7CF
S1130A80C65BDF4FCDBFDEBFDF91CF911F910F91CA
S1130A90FF90EF90DF90CF90BF90AF909F908F909A
S1130AA07F906F905F904F903F900895D8DB44DC27
S1130AB0EFDB08DC23DD6DDC8EDDFDCF1F920F92B2
S1130AC00FB60F92112408B60F9218BE8F939F93FE
S1130AD01092400810926008109261088091A82139
S1130AE09091A921019731F41092A8211092A92183
S1130AF01092400881E080934C0881E180930C0BB4
S1130B009F918F910F9008BE0F900FBE0F901F9072
S1130B1018951F920F920FB60F92112408B60F92D8
S1130B2018BE09B60F9219BE0BB60F921BBE2F93B7
S1130B303F938F939F93AF93BF93EF93FF93109241
S1130B40400881E080934C0880E180930C0B8091F5
S1130B50A6219091A72185369105B4F4E0E6F8E04A
S1130B6020813181DC01AA0FBB1FA25ABE4C2D93F8
S1130B703C9301968093A6219093A7211082118221
S1130B8081E0809340080AC01092A8211092A92104
S1130B90109240081092600810926108FF91EF9142
S1130BA0BF91AF919F918F913F912F910F900BBE69
S1130BB00F9009BE0F9008BE0F900FBE0F901F90AC
S1130BC018951F920F920FB60F92112408B60F9228
S1130BD018BE8F93109200081092400B81E080930E
S1130BE00C088F910F9008BE0F900FBE0F901F90AE
S1090BF01895F894FFCFF4
S1130BF60104070E020508000306090F0A0B0C0D73
S1130C0671207F208D20A020AE20C120CF20DD20A2
S1130C16F020FE2011212421322140215321632179
S1130C263F02C80392035E032E030003D502AC02FF
S1130C36850261021F020002E301C80101010101EC
S1130C4601010101010101010101486F746C696E22
S1130C566520426C696E670A6279204472616B652D
S1130C660041360A313736302E303020487A004378
S1130C76360A313034362E353020487A004323364E
S1130C862F4462360A313130382E373320487A0001
S1130C9644360A313137342E363620487A00442316
S1130CA6362F4562360A313234342E353120487AAD
S1130CB60045360A313331382E353120487A00461C
S1130CC6360A313339362E393120487A00462336EE
S1130CD62F4762360A313437392E393820487A009C
S1130CE647360A313536372E393820487A004723B5
S1130CF6362F4162360A313636312E323220487A60
S1130D06004123362F4262360A313836342E3638BD
S1130D1620487A0042360A313937352E3533204891
S1130D267A0043370A323039332E303020487A007D
S1130D364323372F4462370A323231372E34362072
S1130D46487A00417363656E64696E670A5363612A
S1130D566C650043204D616A6F720A417270657258
S1130D6667696F0050726573732061206B65790A39
S1130D76696E206B657970616400507265737320C7
S1130D8673616D65206B65790A696E2072656D6F96
S1070D96746500007C
S9030000FC
