S0170000546573745F6C6162365F70617274612E7372656332
S1130000FDC0000017C1000015C1000013C10000AD
S113001011C100000FC100000DC100000BC10000A0
S113002009C1000007C1000005C1000003C10000B0
S113003001C10000FFC00000FDC00000FBC00000C3
S1130040F9C00000F7C00000F5C00000F3C00000D4
S1130050F1C00000EFC00000EDC00000EBC00000E4
S1130060E9C00000E7C00000E5C00000E3C00000F4
S1130070E1C00000DFC00000DDC00000DBC0000004
S1130080D9C00000D7C00000D5C00000D3C0000014
S1130090D1C00000CFC00000CDC00000CBC0000024
S11300A0C9C00000C7C00000C5C00000C3C0000034
S11300B0C1C00000BFC00000BDC00000BBC0000044
S11300C0B9C00000B7C00000B5C00000B3C0000054
S11300D0B1C00000AFC00000ADC00000ABC0000064
S11300E0A9C00000A7C00000A5C00000A3C0000074
S11300F0A1C000009FC000009DC000009BC0000084
S113010099C0000097C0000095C0000093C0000093
S113011091C000008FC000008DC000008BC00000A3
S113012089C0000087C0000085C0000083C00000B3
S113013081C000007FC000007DC000007BC00000C3
S113014079C0000077C0000075C0000073C00000D3
S113015071C000006FC000006DC000006BC00000E3
S113016069C0000067C0000065C0000063C00000F3
S113017061C000005FC000005DC000005BC0000003
S113018059C0000057C0000055C0000053C0000013
S113019051C000004FC000004DC000004BC0000023
S11301A049C0000047C0000045C0000043C0000033
S11301B041C000003FC000003DC000003BC0000043
S11301C039C0000037C0000035C0000033C0000053
S11301D031C000002FC000002DC000002BC0000063
S11301E029C0000027C0000025C0000023C0000073
S11301F021C000001FC000001DC0000011241FBE4C
S1130200CFEFCDBFDFE3DEBF00E00CBF18BE19BEE9
S11302101ABE1BBE10E2A0E0B0E2ECE6F3E000E0A0
S11302200BBF02C007900D92AE30B107D9F71BBEC9
S113023093D09AC0E5CE80E090E1A7E4B0E00BB69D
S1130240ABBFFC0120810BBE2223CCF30895F3DF66
S113025028E380E090E1A7E4B0E00BB6ABBFFC017B
S113026020830BBEE8DF2FE080E090E1A7E4B0E05C
S11302700BB6ABBFFC0120830BBEDDDF21E080E0C9
S113028090E1A7E4B0E00BB6ABBFFC0120830BBE4A
S1130290D2DF26E080E090E1A7E4B0E00BB6ABBF8C
S11302A0FC0120830BBE089587E38093E10683E37A
S11302B08093E5068FEF809301078093210781E007
S11302C080934004109256041092570481E2809364
S11302D0540408958F929F92AF92BF92CF92DF926F
S11302E0EF92FF921F93CF93DF93EC0188818823D1
S11302F039F10F2ECC24C394F0E1DF2EF7E4EF2E76
S1130300F12CF02D0F2E812CF0E19F2EF7E4AF2E6F
S1130310B12CF02D10EC8FDFCE368FE2D80731F4FC
S11303200BB6ABBEF40110830BBE06C088810BB6BE
S1130330EBBEF60180830BBE219688818111EBCF41
S1130340DF91CF911F91FF90EF90DF90CF90BF90FE
S1130350AF909F908F900895A7DF79DF80E090E2BF
S10F0360B9DF80E090E00895F894FFCF2E
S111036C5279616E204E6F72646D616E0000F6
S9030000FC
