S011000053746F7057617463682E7372656376
S1130000FDC000001FC100001DC100001BC1000095
S113001019C1000017C1000015C1000013C1000080
S113002011C100000FC100000DC100000BC1000090
S113003009C1000007C1000005C1000003C10000A0
S113004001C10000FFC00000FDC00000FBC00000B3
S1130050C0C20000F7C00000F5C00000F3C00000FB
S1130060F1C00000EFC00000EDC00000EBC00000D4
S1130070E9C00000E7C00000E5C00000E3C00000E4
S1130080E1C00000DFC00000DDC00000DBC00000F4
S1130090D9C00000D7C00000D5C00000D3C0000004
S11300A0D1C00000CFC00000CDC00000FFC20000DE
S11300B0C9C00000C7C00000C5C00000C3C0000024
S11300C0C1C00000BFC00000BDC00000BBC0000034
S11300D0B9C00000B7C00000B5C00000B3C0000044
S11300E0B1C00000AFC00000ADC00000ABC0000054
S11300F0A9C00000A7C00000A5C00000A3C0000064
S1130100A1C000009FC000009DC000009BC0000073
S113011099C0000097C0000095C0000093C0000083
S113012091C000008FC000008DC000008BC0000093
S113013089C0000087C0000085C0000083C00000A3
S113014081C000007FC000007DC000007BC00000B3
S113015079C0000077C0000075C0000073C00000C3
S113016071C000006FC000006DC000006BC00000D3
S113017069C0000067C0000065C0000063C00000E3
S113018061C000005FC000005DC000005BC00000F3
S113019059C0000057C0000055C0000053C0000003
S11301A051C000004FC000004DC000004BC0000013
S11301B049C0000047C0000045C0000043C0000023
S11301C041C000003FC000003DC000003BC0000033
S11301D039C0000037C0000035C0000033C0000043
S11301E031C000002FC000002DC000002BC0000053
S11301F029C0000027C0000025C0000011241FBE34
S1130200CFEFCDBFDFE3DEBF00E00CBF18BE19BEE9
S11302101ABE1BBE10E2A0E0B0E2E4EEF7E000E09C
S11302200BBF02C007900D92A231B107D9F71BBED4
S113023020E2A2E1B0E201C01D92A831B207E1F7C9
S1130240C0D1CEC2DDCE80E090E1A7E4B0E00BB631
S1130250ABBFFC0120810BBE2223CCF308958F9207
S11302609F92AF92BF92CF92DF92EF92FF921F9331
S1130270CF93DF93EC010F2ECC24C394F0E1DF2E57
S1130280F7E4EF2EF12CF02D0F2E812CF0E19F2EB0
S1130290F7E4AF2EB12CF02D10EC0FC0D4DF899110
S11302A08A3031F40BB6ABBEF40110830BBE05C02B
S11302B00BB6EBBEF60180830BBE88818111EECFB5
S11302C0DF91CF911F91FF90EF90DF90CF90BF907F
S11302D0AF909F908F900895E0EEF6E087E38083DF
S11302E083E384838FEF80932007E0E4F4E081E0EC
S11302F08083138A80E8828B85E1808B80E097E499
S1130300868B978B81E2848B08958FEF80934006D0
S1130310809344061092400880E180934108109233
S1130320420880EA809343081092440821E0209315
S1130330460820934C088FE097E2809366089093D8
S11303406708109260081092610810924808209380
S1130350A20078940895CF93DF931F92CDB7DEB7B0
S1130360E0E8F6E08FE0808390EF92839093880634
S11303708093840688E189838981809397068981A3
S1130380809396068981809395068981809394064B
S11303900F90DF91CF91089556DF28E380E090E13C
S11303A0A7E4B0E00BB6ABBFFC0120830BBE4BDF70
S11303B02FE080E090E1A7E4B0E00BB6ABBFFC0116
S11303C020830BBE40DF21E080E090E1A7E4B0E0B1
S11303D00BB6ABBFFC0120830BBE35DF26E080E00B
S11303E090E1A7E4B0E00BB6ABBFFC0120830BBEE9
S11303F0089529DF2FE080E090E1A7E4B0E00BB698
S1130400ABBFFC0120830BBE1EDF21E080E090E146
S1130410A7E4B0E00BB6ABBFFC0120830BBE08958C
S1130420CF93DF93CDB7DEB76797CDBFDEBF80E153
S1130430E2E0F0E2DE01119601900D928A95E1F777
S113044087E090E0A0E0B0E09BE0ADE0BEE0898B07
S11304509A8BAB8BBC8B1D8A8D89843009F44DC07B
S1130460A0E8B6E08D89E1E1F0E0EC0FFD1FE80FB4
S1130470F11D808114968C93149718968C9118977B
S113048082958F708F8B1E8A8E89843071F18E894C
S1130490E1E1F0E0EC0FFD1FE80FF11D90818F8981
S11304A098131DC00BC08E89E1E1F0E0EC0FFD1F35
S11304B0E80FF11D90818F89981311C08D89EE8901
S11304C0F0E094E0899FE00DF11D112481E090E0BB
S11304D08C0F9D1FE80FF91F808190E013C08E8957
S11304E08F5F8E8B8E898430F1F68D898F5F8D8B33
S11304F08D89843009F0B6CF03C08FEF9FEF02C01F
S11305008FEF9FEF6796CDBFDEBFDF91CF91089548
S1130510EF92FF920F931F93CF93DF93CDB7DEB784
S1130520CE56D109CDBFDEBF4AE0BE016F5A7F4F20
S1130530809112209091132020D14AE0BE01655A87
S11305407F4F809114209091152017D14AE0BE016D
S11305506B597F4F80911620909117200ED1BE01C8
S11305606F5A7F4F8E010F5F1F4FC801FBD0F801F8
S113057001900020E9F731970F2EFAE3EF2EF12CCA
S1130580F02DE082F182BE01655A7F4FC801EAD0A6
S1130590F80101900020E9F73197E082F182BE0171
S11305A06B597F4FC801DED0C80159DEC259DF4FF5
S11305B0CDBFDEBFDF91CF911F910F91FF90EF90E0
S11305C008958ADEE9DEC7DEA0DE81E0809340087C
S11305D0FFCF1F920F920FB60F92112408B60F92FD
S11305E018BE09B60F9219BE0BB60F921BBE2F93FD
S11305F03F934F935F936F937F938F939F93AF93A7
S1130600BF93EF93FF938091162090911720CB977F
S113061051F5109216201092172080911420909179
S1130620152001968B33910529F080931420909323
S113063015200DC0109214201092152080911220C4
S11306409091132001968093122090931320D1DE71
S113065022E080E090E1A7E4B0E00BB6ABBFFC0180
S113066020830BBE55DF80911620909117200196B0
S1130670809316209093172081E080934C08FF917B
S1130680EF91BF91AF919F918F917F916F915F9106
S11306904F913F912F910F900BBE0F9009BE0F9079
S11306A008BE0F900FBE0F901F9018951F920F92C7
S11306B00FB60F92112408B60F9218BE09B60F9206
S11306C019BE0AB60F921ABE0BB60F921BBE2F9319
S11306D03F934F935F936F937F938F939F93AF93C6
S11306E0BF93EF93FF93CF93DF931F92CDB7DEB702
S11306F09091880681E0911101C080E0898389810D
S1130700803749F08981803B31F08981803D19F03F
S11307108981803E29F484DE809300209093012017
S113072080EF8093880681E080938C060F90DF91A0
S1130730CF91FF91EF91BF91AF919F918F917F9155
S11307406F915F914F913F912F910F900BBE0F903E
S11307500ABE0F9009BE0F9008BE0F900FBE0F90F7
S11307601F901895FB01DC010D900020E9F711970B
S113077001900D920020E1F70895BB274A3031F42F
S1130780992322F4BDE2909581959F4F01C0BB2728
S1130790FB015527AA27880F991FAA1FA41710F039
S11307A0A41B83955051B9F7A05DAA3308F0A95D45
S11307B0A193009779F7B111B1931192CB0100C0C5
S11307C0DC01FC01672F71917723E1F7329704C0B4
S11307D07C916D9370836291AE17BF07C8F308953F
S10707E0F894FFCFB7
S11307E4FFFF0104070E020508000306090F0A0BA4
S10507F40C0DE6
S9030000FC
